:1000000000000120B1010000DD010000DD01000061
:1000100085D20000DD010000DD0100009117000025
:10002000911700009117000091170000D18800007F
:10003000DD010000DC01000031890000958900002D
:100040003D6E0000C9590200DD010000DD01000025
:1000500031510200215A0200D5590200ED59020027
:10006000CD590200DD01000071540000DD010000E7
:10007000DD010000DD010000DD010000DD01000008
:10008000DD010000DD010000B5540000DD010000CD
:10009000DD010000DD010000DD010000DD010000E8
:1000A000DD010000DD010000DD010000751A000027
:1000B000255A0200D1590200D9840200CDD800008F
:1000C0005D5A0200FD6A000071420200DD0100007D
:1000D000DD010000DD010000DD010000DD010000A8
:1000E000DD010000DD010000DD010000DD01000098
:1000F000DD010000DD0100009117000010B5054C86
:10010000237833B9044B13B10448AFF300800123C3
:10011000237010BDC804002000000000F4D50200C8
:1001200008B5034B1BB103490348AFF3008008BD7A
:1001300000000000CC040020F4D50200154B002B79
:1001400008BF134B9D46A3F5803A00218B460F460E
:100150001348144A121A28F0A5FE0F4B002B00D0AA
:1001600098470E4B002B00D0984700200021040038
:100170000D000D48002802D00C48AFF3008028F095
:10018000DDFD200029000BF03FFB28F0C3FD00BF80
:100190000000080000000120000000000000000036
:1001A000C8040020107C00200000000000000000B7
:1001B000064880470649074A074B9A42BEBF51F896
:1001C000040B42F8040BF8E7FFF7B8FFAD0200009C
:1001D00080D6020004000020C4040020FEE700BF17
:1001E00000487047C0175302114BD3F8943003F006
:1001F0000703023B032B18D8DFE803F00D021410AD
:100200004FF400400A4BD3F80031C3F30423013309
:10021000B0FBF3F07047074B1868F3E7064B18681C
:100220004008EFE7054B1868ECE7034B1868E9E76F
:1002300000400E40080000200C00002010000020AC
:1002400008B5FFF7D1FF054B054AD3F80831C3F3D2
:1002500008230133B0FBF3F0106008BD00400E40EE
:1002600004000020014B1868704700BF0800002000
:1002700008B50B4B0B491860D1F8943003F0070315
:10028000022B00D008BDFFF7AFFFD1F80831064AB6
:10029000C3F308230133B0FBF3F0106008BD00BFC7
:1002A0000800002000400E4004000020044B054AD6
:1002B0009A60D3F8882042F47002C3F8882070470F
:1002C00000ED00E0000000004FF40040704700BF68
:1002D0004FF47A70704700BF014B1868704700BF39
:1002E0001000002010B5064C82B00346009104F1C6
:1002F0002C0220460C210BF0DBF802B010BD00BF31
:10030000E404002038B50C4C0546134620460A4646
:1003100029460BF015F902280CD048B995F834306D
:10032000E2181A3382F85C0044F82300012038BD3B
:10033000002038BD012038BDE404002001480BF046
:10034000C7B800BFE4040020014601480BF024B9FF
:10035000E40400202DE9F04385B00678BDF8307044
:100360009DF834C0002E42D006F1FF395FFA89F4BF
:1003700000F1100909EB041986460446002594F89B
:100380000480B8F1030F18BF013504F1100418BF41
:10039000EDB24C45F3D1AE4229D043B38DF80020E5
:1003A000ADF80270009D25F47F45012D1FD0022A73
:1003B00003D1BCF1000F1AD0CFB1804603E008F1A1
:1003C0001008A04517D098F804509542F7D1B8F816
:1003D0000650BD42F3D198F808506545EFD1D8F8E2
:1003E0001050AB42EBD1D8F80C50A942E7D1002015
:1003F00005B0BDE8F083002EF9D00479032C4FF04E
:10040000000408D00134B4420EF1100EEFD09EF873
:100410000450032DF6D100EB0410C0E90313027160
:100420002FB1C780BCF1000F01D080F808C00120B7
:10043000DEE700BF017081B130B4002422460346DC
:10044000032501348C421D71DA801A72C3E903223C
:1004500003F11003F5D130BC7047704710B500248C
:1004600082B01346CDE900442246FFF773FF02B085
:1004700010BD00BF027842B3F8B50E4607460446E9
:1004800000250BE011D3022B03D13179E388994287
:1004900016D00135AA4204F1100410DD2379012B96
:1004A000F0D13179E3889942F3D1D4E9030331469D
:1004B00098473A780135AA4204F11004EEDCF8BD01
:1004C0007179237A9942F0D0E3E7704770B5124C06
:1004D00084B00023CDE9013320460393E0220923B1
:1004E00001A9FF2603258DF805308DF809608DF8E8
:1004F00006508DF8082006F07FFD0123A3602046FA
:10050000C368DB07FCD4836C41F2883000FB03F046
:10051000000B04B070BD00BF0020004010B582B0D9
:1005200000241F2301210F48ADF802308DF8004050
:100530008DF801408DF804408DF805400BF07AFAF3
:10054000204606F049FE21468DF80200064806F0D6
:10055000A5FD69468DF80300044806F0BDFD02B014
:1005600010BD00BF00B20400C0CF6A0000200040F0
:1005700008B5044806F000FE00210348BDE8084025
:100580000BF058BA0020004000B20400014B186A7A
:10059000704700BFFC900200014B93F822007047A7
:1005A000FC900200014B93F821007047FC90020080
:1005B000014B93F820007047FC9002002DE9F84FA2
:1005C00099460C4693469DF828A09DF830708046C9
:1005D0000AF0C4FC00F0A0FC06460AF0B3FC0B9B3A
:1005E000054643B13A461846214628F0F1FB10B1C2
:1005F0000120BDE8F88F6B681B785B0707D476BBDA
:10060000A4F12000B0FA80F04009BDE8F88F032E75
:1006100004D0042E1CD00020BDE8F88FB8F1030FE1
:10062000F9D1B9F1000F1DD052464846214628F0B5
:10063000CFFB0028DCD1202CDAD0042EEBD1722C99
:10064000E9D1BBF1040FE6D1B8FA88F04009D0E750
:10065000B8F1040FF3D1B9F1000FE5D1EDE746454C
:10066000EBD1F8E74846C4E730B58BB00C460546F9
:100670000AF056FC6523002201A980688DF8085015
:100680008DF809408DF804300AF0B7FD0BB030BD8D
:1006900038B5064C06490546204609F03FFE10B91C
:1006A0002C60012038BD002038BD00BFD0050020DF
:1006B000E090020000487047D00500209022002101
:1006C000014828F0EFBB00BF2006002010B5084C01
:1006D000237853B90346012204F10C0063602270B1
:1006E00004F05AFC04F1100010BD002010BD00BF42
:1006F0002006002008B5054B984201D0002008BD17
:10070000043804F081FC012008BD00BF3006002041
:100710002DE9F843104D2C78012C02D00020BDE8C3
:10072000F88305F10C09804648460E46174604F04A
:1007300051FC484604F06EFC30702FB91035C8F8F3
:1007400000502046BDE8F883C8F8009033780433A1
:1007500033703846BDE8F8832006002038B5064CD3
:100760006368054603B19847EB78012B00D038BD8C
:1007700000236360237038BD20060020024B002256
:100780005A601A70704700BF2006002010B5134C45
:1007900082B062788DF8060000210123ADF80410C4
:1007A0008DF807309AB12378C3F3C20304EB8301B9
:1007B000496829B101A8884723786278C3F3C20346
:1007C00021780133013A63F3C50162702170044B53
:1007D0001B6803B1984702B010BD00BF74600020D1
:1007E000B806002010B50E4C627892B12378C3F39E
:1007F000C20304EB8301496821B1884723786278FA
:10080000C3F3C20321780133013A63F3C501627077
:100810002170044B1B6813B1BDE81040184710BD90
:1008200050600020B806002070B40B4D0B4C2A78A5
:1008300023780B4E02F0F8026FF3C5022A7003F022
:10084000F803002262F3C5036A706270054A2370E0
:100850003060116070BC70477460002050600020F0
:10086000BC060020B806002070B5134D2B7A8B42D1
:100870001AD3C9B10C4606460AF070FB00F04CFBD7
:1008800050B1E8681C216FF01B0311FB04310144D7
:100890007EB101F1140070BD46B9E9681C2000FB6F
:1008A0000411A1F1180070BD002070BD05F1180001
:1008B00070BD01F10C0070BDC0060020F0B5C1B0E4
:1008C000019050688DF80310017901B99170244DA1
:1008D0006978072902D9012041B0F0BD2E7806F0D1
:1008E0000706144605EB86060DF1030101A87360A7
:1008F00004F094F867689DF803603A8819482378F3
:100900000199ADF8BC20039032460DF112008DF82C
:10091000103028F0BCFA7B79134A64788DF8C23025
:10092000002310688DF8116044F00104012702A92A
:100930001A468DF8C040ADF8BE308DF8C1308DF844
:1009400008700AF05AFC0028C6D12B786A78D919A9
:1009500061F302033A442B706A7041B0F0BD00BFEE
:10096000746000208D070000BC060020F0B5254C07
:100970006578C1B0072D01908DF803103FD821781C
:1009800001F0070104EB81014B60002A37D01546C6
:100990000DF1030101A804F041F86F689DF80360B0
:1009A0003A8819482B780199ADF8BC20039032465B
:1009B0000DF112008DF8103028F069FA7B79134A96
:1009C0008DF8C23000236F7810688DF81160012512
:1009D00002A91A468DF8C070ADF8BE308DF8C1304E
:1009E0008DF808500AF009FC50B92378627859193B
:1009F00061F302032A442370627041B0F0BD01200C
:100A000041B0F0BD50600020E5070000BC060020AA
:100A100070B584B013469DF808509DF80E401278CA
:100A20001E898DF804200A46597B8DF80510002395
:100A3000014663F300046FF3060501A8ADF80660F4
:100A40008DF808508DF80E408DF80C3004F008FF3A
:100A500004B070BD70B40479104B114A9E78536095
:100A600014F07F0518BF01250A60C4F3060441880D
:100A70001D7164F3060644781980252111709E705B
:100A80005C7103789B0744BF27231370037A00210E
:100A9000C3F306039370517070BC7047B00600201A
:100AA000E0060020037813F00C0F0DD190F9083008
:100AB000002B0A4B0DDB1878A0F101000022B0FAE0
:100AC00080F040091A707047044B002201201A7010
:100AD0007047002201201A70704700BFC006002036
:100AE000037813F00C0F14BF01200020704700BFE3
:100AF000014B1870704700BFC0060020F0B5404D94
:100B0000404E2B78326883B0002B42D09A423E4C44
:100B10000CBF01230023E37000284DD002888378A6
:100B20002280A370394B1B680BB137489847336854
:100B3000297899422BD2364A364B12681B78507866
:100B40008DF800008DF8013000292ED093788DF8B3
:100B5000023002F0ABFB304A03881278019012F0A9
:100B60000702238002D02D4B1A7842BB2C4F2D4E0A
:100B700039463046FFF7CCFD30BB244B20801B6844
:100B800002210122A170E2700BB11F48984703B007
:100B9000F0BD002AFBD01E4A1E4B12681B7851780C
:100BA000194C8DF800108DF80130990744BF43F0BF
:100BB00004038DF80130C9E72080A070B2E7827885
:100BC000D243C2F3C012D1E739783068164B6A4677
:100BD000FFF774FE20B92B7801332B7003B0F0BD02
:100BE000002502232580A37002F07EFB28B1E5706A
:100BF000064B1B68002BC8D1C9E70123E370F7E758
:100C000001070020FC060020040700209860002057
:100C1000F80600200807002000070020E906002051
:100C2000E8060020F4060020FD0A00000020FFF77F
:100C300065BF00BFF0B5194D194E85B0002400E026
:100C400040B32868009400F108016A460430ADF80A
:100C5000044002F05FFB9DF902303070002B4FF032
:100C60000007EDDA2B680F490F489A785C7809780D
:100C70008DF80A200D4B00688DF8084002AA8DF807
:100C80000970CDF80CD0FFF719FE003018BF012015
:100C900005B0F0BD022005B0F0BD00BFF806002091
:100CA000F0060020E8060020F4060020C10D000038
:100CB0002DE9F041C6B068461D210AF0D0F90024A4
:100CC000364B374F1C702146AA220DF12A003C708A
:100CD00028F0E8F8334A344B16781968334D324619
:100CE0000DF12A0028F0D3F8314B8DF829608DF8EA
:100CF0002840099302F0F8FA012828602DD92D4BDD
:100D000093F80080B8F1000F27D12B4E33689B6910
:100D1000187910F0070424D102F0C8FA0178684667
:100D20000AF091F92B6801349C42F5D36C460FCC44
:100D300035AD0FC503238DF8203094E80F0007C5AB
:100D400032682B70106808A900220AF056FA0030A9
:100D500018BF012046B0BDE8F081022046B0BDE8D2
:100D6000F081164B1B681B788DF8D530FF238DF86A
:100D7000D43000F0D1F833688DF8D60042461868B8
:100D800008A9042302243C708DF820300AF035FABB
:100D9000003018BF012046B0BDE8F08101070020F7
:100DA00008070020E8060020F4060020FC060020CA
:100DB0002D0C0000F0060020EC060020F8060020B4
:100DC00070B5837804462BBB224B1B783BB1FFF7F1
:100DD00031FF012805462CD0022800D070BD02F05A
:100DE00083FA1D4B186048B91C4B1B680122E27046
:100DF000002BF3D02046BDE870401847FFF758FF9E
:100E00000128054615D00228E8D10020BDE8704031
:100E1000FFF774BE02F068FA40B10023E3700F4B95
:100E20001B68002BD0D020469847CDE70123E37004
:100E3000F5E70223A37002F057FA40B9E570074BBB
:100E40001B68002BCAD02046BDE87040184700231D
:100E5000E370F4E7F0060020FC0600209860002014
:100E6000014B1860704700BFEC06002043B12DE92C
:100E7000F0411E7A0EB100B121B90020BDE8F08129
:100E8000002070471646DFF884801A4A069F1760D4
:100E9000C8F80030184A194B10601970FFF72AFC87
:100EA0000028EAD0164B174A1B6817499B690E7039
:100EB0001B79137013F0070202D0321C18BF0122F5
:100EC0000E490D48FFF724FC0028D6D0D8F8003092
:100ED000586802F0CDF9FFF7ADFE48B10128CCD03B
:100EE000FFF7E6FE20B10128C7D00020FFF706FE7D
:100EF0000120C3E798600020F4060020E8060020E7
:100F0000EC06002000070020E9060020F80600207B
:100F10000020FFF7F3BD00BF41070BD4820707D4C1
:100F2000C30709D410F0800F14BF042000207047BD
:100F300002207047032070470120704730B5124BE4
:100F40000C461D68187A596862792B6985B0CDE91D
:100F500001102D7D217994F8B500009594F8A450E6
:100F6000FFF72CFB08B905B030BD294604F1A802F3
:100F7000201DFFF74DFD054B1B68002BF3D005B07E
:100F8000BDE83040184700BF100700200C070020C4
:100F900070B5094B1C681E7A5D68236984B0CDE981
:100FA00001561546227D00920A4601462846FFF763
:100FB00005FB04B070BD00BF1007002008B509F0A4
:100FC000EFFF38B90B4B53F8042B92E8030083E88A
:100FD000030008BD09F0C2FF420708D0054B53F8D3
:100FE000042B083292E8030083E8030008BD0306DF
:100FF000E8D5F3E71007002008B5054A054B106057
:101000001960FFF7DBFFFFF759FB012008BD00BFA8
:10101000100700200C07002010B5FFF7CFFF034B8F
:101020001B6813B1BDE81040184710BD0C07002025
:10103000062817D800EB4000C0000B4A135C02449E
:1010400043B91A4618460029114614BF042201224A
:101050000BF006BF1369107AD26813F1FF3318BF83
:101060000123F0E70023ECE7E4910200062819D8F9
:1010700000EB4000C000164B1A5C184492B1027A93
:10108000144B30B4D0E9034502EB420212010120B7
:101090001344A04099B9012D15D003F1806330BCF1
:1010A0001860704729B90B4B03F1C0630120186029
:1010B0007047084B03F180630120186070470129D5
:1010C000EBD1002DE9D103F1C06330BC186070474B
:1010D000E49102000CA00040062810B406D800EBF2
:1010E0004000C0000C4B1A5C18444AB90B4B01215C
:1010F00018685DF8044B401AB0FA80F04009704758
:10110000027A074BD0E9034102EB4202D2011344B9
:1011100023449B00ECE700BF3C9102008003144293
:10112000E000851038B54A4D4A4C2B6822780A33C6
:10113000012A2B6022D06378012B31D0A378012BB8
:1011400040D0E378012B4FD02379012B5ED0637917
:10115000012B6DD03F4B991D13F8012B42B98B42E7
:10116000FAD13D480AF03AF93C4B00221A7038BDDA
:101170002A6847F230539A42F3D8F8E7384A2B6886
:1011800012689B1AB3F5967FD5D3022343202370B0
:1011900000F0A6FC334B43221A706378012BCDD1AB
:1011A0002F4A2B6852689B1AB3F5967FC6D3022349
:1011B0004820637000F094FC2A4B48221A70A378F0
:1011C000012BBED1264A2B6892689B1AB3F5967FF5
:1011D000B7D302234D20A37000F082FC214B4D2297
:1011E0001A70E378012BAFD11D4A2B68D2689B1A85
:1011F000B3F5967FA8D302235220E37000F070FC71
:10120000184B52221A702379012BA0D1144A2B6853
:1012100012699B1AB3F5967F99D302235720237145
:1012200000F05EFC0F4B57221A706379012B91D1AD
:101230000B4A2B6852699B1AB3F5967F8AD3022317
:101240005C20637100F04CFC064B5C221A7081E755
:1012500088070020440700204C0700201C070020BE
:101260002807002014000020062808D800EB4000C2
:10127000C000044B1A5C12B1184400697047012089
:10128000704700BFE4910200062808D800EB400038
:10129000C300044AD05C20B1134458697047002051
:1012A00070477047E4910200062807D800EB40031E
:1012B000034A12F833300BB1FFF7BABE704700BFD4
:1012C000E4910200062807D800EB4003034A12F815
:1012D00033300BB1FFF7CABE704700BFE491020084
:1012E00001280CD0002302281A4604D14FF4617162
:1012F000642000F019BB1946184600F015BB704772
:10130000062808D800EB4000C000044B1A5C12B15C
:101310001844407D70474020704700BF3C91020058
:10132000062800D970472DE9F04147003B18394E97
:1013300016F8333082B0EBB1374D95F80080044693
:10134000B8F1000F19D03B1906EBC3031A7D93F8CF
:101350000880DD6822BB012340462946CDE90033E1
:101360002A460BF037FD2D49E8B202B0BDE8F04146
:1013700004F070B802B0BDE8F081294A2948012183
:10138000FEF7C0FF04F058F8274B2848A02201219F
:1013900083F8122383F80A2380F800802970D2E7AB
:1013A000B8F1050FD7D801A353F828F0FB130000BC
:1013B000F113000005140000E713000057130000AC
:1013C000C5130000022D22D0072DC4D14FF40031E7
:1013D000381906EBC00608463369012B18BF0021F7
:1013E0000BF080FDB7E70E2DB5D14FF48011EFE77C
:1013F0000D2DB0D14FF00071EAE7032DABD14FF0C6
:101400008071E5E70A2DA6D14FF08051E0E74FF457
:101410008031DDE73C9102002407002059160000CE
:10142000251100004C07002000E100E01C0700200F
:1014300006282DE9F84304460D46904637D8460065
:101440003318DB00374FFA5C3B4482B31B7D1BB182
:10145000354B364AC3F824242046FFF73DFE0128C9
:10146000814636D0264407EBC607787DB8F1000FD9
:1014700021D12F4A135DC3B12E4B2F491B6851F860
:10148000241002F804805B1A41F2883293421AD881
:10149000142B0AD9B3F5967F0DD30130C4B2204680
:1014A00075B900F00BFB254B1C70BDE8F88340209C
:1014B000B8F1000FDDD00230C4B22046002DF0D0CC
:1014C00000F00EFBEFE70430C4B22046002DE8D058
:1014D000F6E7174E335D002BE7D19DB1184D154F40
:1014E0002B7803F0FF0233B916483A600A2109F05D
:1014F000FFFE85F80090104B3A6843F82420012342
:101500003355D2E70F480B4F09F095FF0028F2D171
:101510000C483D600A2109F0ABFE094B83F80090AE
:10152000E9E700BF3C91020000A000400000131357
:10153000440700208807002028070020140000200E
:101540001C0700204C0700202DE9F04104461746F7
:101550000D4649B9062827D9002A6BD1394E4124B6
:10156000204600F0ABFA37E006283BD84600331897
:10157000DB00DFF8D48018F803204344E2B11B7D80
:10158000002B3CD12046FFF7A7FD012840D0A7B192
:10159000264408EBC60898F815703DB3384600F0AD
:1015A0009FFA284E377009E046003318DFF898801C
:1015B00018F83330002BE5D1AFB9224E062C05D8F0
:1015C00004EB4404E400204B1A5D9AB94124002D39
:1015D000C6D0204600F084FA1C4B347000221A70EA
:1015E000BDE8F0815AB34027002DD7D1384600F02E
:1015F00065FAD6E723445C7D0134E4B2E7E7144B97
:10160000144AC3F824242046FFF766FD0128BED102
:101610000E4F3B78002BE3D1344408EBC40898F814
:101620001540204645B900F049FA064A01231470D6
:101630003B70D5E74027D9E700F052FAF5E741249F
:10164000004EC6E7140000203C9102001D07002058
:1016500000A00040000013130A282BD006D9CD2883
:1016600019D0CE280DD00B281AD0704707281CD0CF
:1016700009280BD00628F8D1002210460121FFF7D7
:10168000D7BE002201210520FFF7D2BE0022012192
:101690000620FFF759BF002201210420FFF7C8BE32
:1016A000002201210320FFF7C3BE012108460022CA
:1016B000FFF7BEBE002201210220FFF7B9BE00BF26
:1016C0002DE9F04101212048204C214F214E0AF004
:1016D000B1F9214B00251D6004F1A80823780322ED
:1016E00043B1D4E9031313F1FF33207A18BF012368
:1016F0000BF0B6FB1834444507F8015F46F8045F69
:10170000ECD1164B164A1749174D01201861D2F833
:101710001C341B0C1B040B600024C2F824342B78EF
:101720000121E0B20BB1FFF783FC0134072C05F176
:101730001805F4D101230422052100200BF090FBB1
:101740000020BDE8F08100BF00350A003C91020096
:1017500043070020240700208807002000300E40A7
:1017600000A0004020070020E4910200BFF34F8F4B
:101770000549064BCA6802F4E0621343CB60BFF32D
:101780004F8F00BFFDE700BF00ED00E00400FA0549
:1017900008B501210846FFF769FC00210220FFF788
:1017A00065FC00210120FFF761FC01210220FFF709
:1017B0005DFCEEE710B5642849D8DFE800F042335D
:1017C00045454842334242334848484848484848DB
:1017D000484848484848484848484848484845458F
:1017E0004848484848484848484848484848484879
:1017F0004848484848484848484848484848424275
:101800003333424242484848484848484848484894
:10181000484848484848484848484848484845454E
:10182000424242000124002304220E2101200BF039
:1018300017FB234604220F2101200BF011FB01208E
:1018400010BD00240123EFE700242346ECE700202D
:1018500010BD00BFF0B52C4F3C7885B0002C50D1A6
:1018600001210646FFF720FD01212848284D09F0F7
:101870002FFB0A2127480AF087FC042126480AF09A
:1018800083F9012125480AF0D5F8012122480AF000
:10189000D1F8EB6A224A43F00803E021EB624FF0F3
:1018A000006382F81B1330461360FFF7EDFC2B6CCE
:1018B00023F001032B646B6C23F01F03184368644F
:1018C0003046FFF7D1FC174A8DF80040B0FA80F39C
:1018D0005B09284669468DF804308DF805301360A1
:1018E0008DF801408DF802408DF803408DF80640D8
:1018F0008DF807408DF80840039403F011FE012392
:101900003B7005B0F0BD00BFB10700208C07002080
:101910000060044002001E008006160030253E00D4
:1019200000E100E0B40700202DE9F043484C2478A2
:1019300087B09CB1032875D90844FA250F4645495C
:1019400005FB00F0A1FB00151646AD0952B1B5F537
:10195000803F02D2B2F5803F76D30024204607B004
:10196000BDE8F083B5F5803FF7D291460126DFF858
:10197000F48001932A464046002103F0BDFDFA227F
:10198000344902FB07F7A1FB0737A5EB97173A4647
:101990004046012103F0B0FD32464046002103F0ED
:1019A000FFFD01224046114603F0FAFD1C212A4AA0
:1019B000C8F80410002612788DF80C208DF80D2040
:1019C0000596D8F840208DF8109042F001024FF0B3
:1019D000010903218DF80E108DF80F108DF80860A5
:1019E0008DF809608DF80B608DF80A904046C8F8B4
:1019F000402002A903F094FD2A463146404603F0F8
:101A00007BFD3A464946404603F076FD494640464E
:101A100003F07CFD114A019B11481370314609F017
:101A200059FA9BE70F48036C23F00103036400217C
:101A300003F06CFD094B0A4800221A7009F04CFAB9
:101A4000204607B0BDE8F0834FF001098FE700BFE3
:101A5000B1070020D34D6210B4070020B00700206A
:101A60008C07002000600440014B1878704700BFCD
:101A7000B00700200B4808B5036A1B0700D408BD57
:101A800008238362036C23F001030364002103F045
:101A90003DFD054B054800221A70BDE8084009F0DD
:101AA0001DBA00BF00600440B00700208C07002072
:101AB000014B1860704700BFB807002000B583B025
:101AC00002A9064B01F8010D0022186809F095FBE8
:101AD000B0FA80F0400903B05DF804FBB8070020BD
:101AE00000B583B002A9064B01F8010D0022186869
:101AF00009F0A4FBB0FA80F0400903B05DF804FBE4
:101B0000B807002000B583B000230093054A064BB8
:101B10000121042005F076FC044B186003B05DF849
:101B200004FB00BF04080020BC07002008080020B8
:101B300000B583B002A9084A01F8010D002310681E
:101B40001A4605F06FFCA0F10100B0FA80F04009E0
:101B500003B05DF804FB00BF0808002008B5064B81
:101B600001460022186805F011FDA0F10100B0FA4D
:101B700080F0400908BD00BF08080020124B10B4D7
:101B80001968D1E9004283B01078137A896801910D
:101B900010F0020FC3F306034FF000010CBF252025
:101BA00027208DF802308DF801104CB102AB03F8FC
:101BB000080D93E80300234603B05DF8044B184773
:101BC00003B05DF8044B70473C08002008B5084A94
:101BD00008480021FEF796FB48B1074A0749002351
:101BE000C2E90033C2E90433C2E908330B6008BD1F
:101BF000CD1D00009C6000200C0800203C08002047
:101C0000F0B589B0002839D0002937D00C460546F8
:101C100016460868A268496802AB07C302A8FEF727
:101C20005FFF074618B10126304609B0F0BD08AB8A
:101C3000014603F81D0D01AA0120019700F0FAFEEC
:101C40009DF80330002BEED0012B0ED1019BBDF887
:101C50000A101A88914208D19B789DF80C2003F055
:101C60007F0302F07F029A42DDD0FEB9224B1A6850
:101C70004AB11A69002A3DD01A6A1AB100263046C4
:101C800009B0F0BD022212011C4F9D509E1801990F
:101C90003B689DF803203273C6E90141002BC2D195
:101CA000FA2117483E6009F0E3FABCE7144809F04E
:101CB000C2FB114B06460028D9D00027DA59AA42A8
:101CC00003D01037302FF9D1D1E7DA190DF1140C08
:101CD00052689DF810E0106851689268ACE80700FF
:101CE0009DF81C2082EA0E025206EAD1044809F04F
:101CF00045FBC4E70122C6E70C0800203C08002091
:101D00009C6000202DE9F0412D492E4E2E4832686E
:101D100001F1100401F120054FF0000C13E093686D
:101D200006339360D2E9017E3B79B7F80280BEF8B2
:101D30000070B84503F07F032AD19EF8027007F0C7
:101D40007F079F4224D1137B013BDBB21373002B2F
:101D5000E5D18A42C2E90033936020D0A24220D06C
:101D6000AA4222D04FF0030C01E09C4521D05A1C1E
:101D7000A0FB02735B0803EB4303D31A1A018F180D
:101D80008A58002AF1D03A46C7B14FF0010CC9E792
:101D9000BCF1000F10D1BDE8F041FFF7EFBE9C464B
:101DA000E5E74FF0010C6346E1E74FF0020C6346B4
:101DB000DDE73260BDE8F0813260ECE73760F9E7DB
:101DC0000C0800203C080020ABAAAAAA0C4B8342B6
:101DD00000D070470B4B1B68D3E90123508819884A
:101DE000884207D112799B7802F07F0203F07F03CB
:101DF0009A4201D0FFF7C2BE0020FFF783BF00BFA9
:101E00009C6000203C080020F0B54B78012BABB063
:101E10004BD0022B02D000202BB0F0BD054601A80C
:101E200004F032FE00284ED00AAE80220021304657
:101E300027F038F828466946FEF70CFE9DF8043076
:101E400040F25D32ADF82820DA0760D513F0020FBA
:101E50000CBF022303239DF80A40BDF806108DF83D
:101E60002A300DF12E030D0A224618468DF82C104B
:101E70000DF10B018DF82B508DF82D4027F007F850
:101E8000BDF80870009A05190346A91C891B4FEA82
:101E9000172C03F804C0C9B2304600236F70FEF758
:101EA00065FD80B9FF202BB0F0BD08A80C46164692
:101EB00004F0EAFD38B1A378DA0907D09DF82020B4
:101EC00012F0010225D002202BB0F0BD9DF8205069
:101ED000E907F8D59DF831209A42E3D1E11C0DF1D4
:101EE000320026F0C5FF03460028DBD1C5F34005CC
:101EF00008A8CDE90833CDE90A33CDE90C330E93B8
:101F000004F0B4FD002DCDD003F068FCCAE7012336
:101F1000A1E703F07F056B1E0121092B08920C92AB
:101F200009928DF83150CDE90A22CDE90D228DF8C4
:101F30002010C8D8E71C39462A460DF1320026F099
:101F4000A6FF7B19795D5A789F788DF8267042EA52
:101F50000122791E0929ADF82220B4D8DD1C3A46A9
:101F600029460DF1270026F092FFEA19931C1C1B4D
:101F7000A642A8DBE95D537843EA0123ADF824309B
:101F8000002BA0D008A804F071FD8BE770B50C46BB
:101F900049780139A4B005460A2969D8DFE801F07B
:101FA0000E47681A2768686868680600FEF77AFDB9
:101FB000044600285ED0022024B070BD007A21467D
:101FC00000F07F00852300F0EBFF0028F3D0FF2016
:101FD00024B070BD022AEED9017AA078134601F030
:101FE0007F01224600F07EFE0028E4D0EFE7FEF7F6
:101FF00059FD04460028DED18022214604A826F09F
:1020000051FF284601A9FEF725FD287A40F2856395
:1020100000F07F00ADF8103000F056FD8DF8120092
:102020002346019A04A80321FEF7A0FCCFE7FEF7A0
:1020300039FD06460028BED18022314604A826F08C
:1020400031FF287A04AA0DF10303214600F07F0036
:1020500001F030F8284601A9FEF7FCFC334604A83D
:10206000019A9DF80310FEF781FC0028AFD0A2E78B
:102070000020A1E78022214604A826F013FF28466D
:1020800001A9FEF7E7FC40F68543ADF8103000F0FB
:1020900033FAC3E700B5A5B0802204A8002126F0DA
:1020A00001FF01A91248FEF7D5FC124B104A1B781C
:1020B000117A114A022B14BF0123812310788DF865
:1020C00012300DF1130240F2594301F07F01ADF8D7
:1020D000103000F0B7F904A8084B019A0A21FEF766
:1020E00045FCB0FA80F0400925B05DF804FB00BF64
:1020F000800800207E0800207D08002005210000C7
:10210000FFF7C8BF38B50E4C2378022B02D000234E
:10211000237038BD0B4B0C4A1D7810786A1C1A705E
:1021200000F07EF98542F2D20021084A0848FEF705
:10213000E9F80A210648BDE8384009F099B800BF1F
:102140007E0800207D0800207C080020012100007E
:1021500040080020F0B5A5B00D4617460646FEF72C
:10216000A1FC70B96B78032B48D0052B04460BD02B
:10217000012B07D104A88022214626F093FE032FCD
:102180005FD0022025B0F0BD8022214604A826F0B1
:1021900089FE24A9307AEB7801F88D3D00F07F00AC
:1021A00000F020FA317A9DF8030001F07F0100F081
:1021B0008DF905460028E4D0304601A9FEF74AFC17
:1021C000327A9DF803308DF8135040F2596602F0D0
:1021D0007F02194605A88DF81230ADF8106000F0A6
:1021E00055F90028CDD0291DC9B2234604A8019A6B
:1021F000FEF7BCFB0028C4D1FF20C3E7214C2378A5
:10220000002BBED1AA78337A1F4912F0400FC3F3D6
:1022100006031E4A0FD00120107002220B7022709C
:102220001B4B30687168B26807C3FFF733FF0028A3
:10223000E2D12070A5E7E878107001220B702270BF
:10224000EEE7AB78327A8DF80330194602F07F0260
:1022500040F2592505A88DF81230ADF8105000F065
:10226000ADF801A9054630468DF81350FEF7F2FB94
:10227000291DC9B2234604A8019AFEF777FBFF2067
:1022800080E700BF7E0800207C0800207D08002039
:102290008008002070B50C4649780139A4B0054685
:1022A000042947D8DFE801F01C26460B0300FEF79F
:1022B000F9FB0446002840D0022024B070BD022A59
:1022C000297A12BFA0780020A070134601F07F0188
:1022D000224600F007FD0028EED0FF2024B070BD9C
:1022E000007A214600F07F008E2300F059FE01287D
:1022F000E2D1F2E7FEF7D6FB06460028DCD18022C9
:10230000314604A826F0CEFD287A04AA0DF1030375
:10231000214600F07F0000F0CDFE284601A9FEF71F
:1023200099FB334604A8019A9DF80310FEF71EFBA3
:10233000FF20C2E7002024B070BD8022214604A8FF
:1023400026F0B0FD01A92846FEF784FB287A40F26A
:102350008E6300F07F00ADF8103000F0B5FB23462F
:102360008DF81200019A04A80321FEF7FFFAB4E7E2
:1023700030B50B4B0B4C0C4D93E8070085B001AB0F
:1023800003C33422012304F1080000212B7026F03E
:1023900089FD01AB93E8030084E8030005B030BD7C
:1023A000E09202008C080020150000201AB9024BB0
:1023B000D86283F8301070478C080020F0B5164BB7
:1023C00005460E4617460FCB85B06C4607C42380E2
:1023D000D5B1E7B9114C94F8383001339E4208DC8E
:1023E0003EB1012E06D0646B312101FB06445B3CFB
:1023F00000E06C46204626F008FE2E46C5B2214677
:1024000030462A4626F043FD284605B0F0BD00259B
:10241000284605B0F0BD00BFEC9202008C080020F9
:1024200008B10020704708B508F0C2FD022805D0A9
:10243000034B93F838000130C0B208BD012008BD3D
:102440008C08002038B1104B063103EBC1010B7A28
:102450000133984206DD012313700021012391709E
:10246000D370704701281070F7D010B431236FF08B
:102470006104496813FB00400B18095C91705B789C
:10248000D3705DF8044B70478C08002092B9012985
:1024900010B50D4B0C460FD05B6B31216FF0610214
:1024A00011FB04241C44E11CA278520026F0EFFC2E
:1024B000012010BD0020704793F83020D96A5200E7
:1024C00026F0E5FC204610BD8C08002059B90128F3
:1024D000084B0AD05B6B312202FB003010F8600C15
:1024E0004000C0B270470020704793F830004000B1
:1024F000C0B270478C080020014B1878704700BFAD
:1025000015000020F8B5334D2523AA706B70002A02
:1025100050D104780F7890F801C014B9BCF1010FC4
:1025200031D02D4B93F838605B6B002E42D00022E7
:10253000114604E0D1B28E4203F131033AD9187842
:10254000A04202F10102F5D158786045F2D19878A5
:102550000028EFD093F803E0BE4504D00128E9D964
:102560005879B842E6D10231CCB2FF2C22D01B4BB5
:1025700000211A1F204600F05DFAD8B9184B2C70C4
:102580001C701448F8BD144A92F83030D16A8BB1EF
:1025900003F10042013A11F81220BA420CD0013B7B
:1025A000DBB201EB430303E013F8022DBA4203D080
:1025B0008B42F9D10020F8BD084B00211A1F0120E1
:1025C00000F038FA0028F5D1054A024801231370BB
:1025D0002B70F8BDC80800208C080020D00800200F
:1025E000150000200B783BB1054A02EBC00090F8C3
:1025F00038200132934201DD01230B70704700BF88
:102600008C0800202DE9F04F8DB0013A14019A4654
:1026100004921346C1EB0112099105941946E31A7D
:102620005400984D9AF804600A94CAB204EB43032C
:10263000C2EB021218335200EB182919002E039333
:1026400001EB0203079314BF3346012306930023D3
:1026500002960B920890A4460193DDE90423039CA3
:102660009F1A7F0005232188FF290ED02279012A95
:102670000BD0029A1AB99AF80C20002A53D0DAF833
:1026800000200198125C8A424DD05E1E063C334603
:10269000002EE8D1019B069A01330193DBB29A42E6
:1026A000DBD8089B852B32D0DDE904239A1A099BDD
:1026B0009AF80C000690C3EB03110A9B4FEA4208FC
:1026C0000B9A2B4400281A44134614BF03460123D7
:1026D0004FEA41090492B3460193D646039A4FEA62
:1026E0004B0704234FF0FF0C1088FF28194602D037
:1026F0001479012C0ED0013B591CA2F10602F3D132
:102700000BF1010B019A5FFA8BF39A42E6D80DB0F8
:10271000BDE8F08F029C002C44D1069C002C41D1D6
:10272000A2F800C0E7E75FFA83F84FF0FF02B8F1C4
:10273000050F228000F09480E0885E1EFF2832465C
:10274000194600F08F80C8F104085FFA88F804F198
:102750000C0E002003F1010904E03EF806BBBBF1BA
:10276000FF0F79D001EB410107EB4101614402EB1E
:102770004202294407EB42026244D1F800B045F816
:1027800002B02A4489889180804503EB000209EB5E
:10279000000100F10100E0D11822079B4FF0FF017A
:1027A000995273E7DEF80860F45D84423E4401D03C
:1027B000002CA0D103EB4304640004EB0800484460
:1027C000284476788078B04295D10698A2F800C067
:1027D000002890D0042BDEB239D0B2F806A0581CE5
:1027E000BAF1FF0F059033D0C6F10306F4B29E1C78
:1027F000CDE90862079402F10C0A0A930024059BB4
:10280000079A05975646089F04E036F806ABBAF1DA
:10281000FF0F2CD000EB400008EB4000484401EBD8
:102820004101284408EB41014944D0F800A045F893
:1028300001A0294480888880A24203EB040107EBB1
:10284000040004F10104E0D1DDE90923059F182407
:10285000049921F804C04EE702EB420252009CE7C3
:102860005E1E99E703EB43035A00063A95E701EB36
:1028700041014C000499059F21F804C0DDE90923BA
:1028800039E700BFF0080020F0B403310024032A28
:10289000016004718460047323D9033AD6B206F14F
:1028A000FF3C224607E0541CE5B2AE42057101F13F
:1028B0000101224613D98E2BF5D1ACEB02040F781F
:1028C00004EBD474C4F34705541C002FEBD10573FB
:1028D00055B9E5B2AE4201F101012246EBD8F0BC98
:1028E00070470460F0BC704701318160F7E700BFBA
:1028F00002880B889A4270B420D08C7804F07F054F
:10290000072D08D9867806F07F06B54221D802D275
:10291000012070BC70479A4208D985786D0605D0B1
:10292000640616D0042270BC26F0A2BA9A42F9D2EC
:102930006206F7D083785B06EAD0F3E785788C7877
:10294000654015F07F06D9D12D06D7D4304670BC2E
:1029500070474FF0FF30DCE7F0B50F78012F1BD048
:10296000DFF858E0DEF80020B2B1134B1B780BB350
:102970001478BC4212D05C1EE4B2013404EB44046F
:10298000032303E0D65CBE420AD02B46A34202EBEF
:10299000030C03F10305F5D10020F0BD944600239C
:1029A0009CF801200270DEF80020134401209B787F
:1029B0000B70F0BD1846F0BD0E0900201009002074
:1029C000F0B5194F85B00024384604EB4402038863
:1029D0000DF8023004AB134407EB420213F80F1C4E
:1029E000957890F804C013F80E2C4679C5F3060EBE
:1029F0006EF306016CF34512ED09013465F3C7115E
:102A000066F30302052C03F80F1C03F80E2C00F1EB
:102A10000600DAD1054B064918686A460F2307F00D
:102A20004FFD05B0F0BD00BFF0080020D8600020C9
:102A300001100500F0B583B001298DF806108DF85E
:102A400007002BD86AB363B3C7B227B308461E4644
:102A50001546FFF7E5FC87421DD89DF8061019B30F
:102A60009DF80730174A013B0B44C3EB031302EBFD
:102A7000430305222B603270296800220B88FF2B4C
:102A8000D0B201F1060102F1010216D0052AF5D1FA
:102A9000002003B0F0BD072003B0F0BD062003B056
:102AA000F0BD032003B0F0BD0DF107010DF10600EC
:102AB000FFF752FF9DF80610D2E730700028E7D1EB
:102AC0000220E9E7F0080020FFF7AABC2DE9F04F4B
:102AD000148887B0E82C8DF80F008DF80E1003D9FC
:102AE000002007B0BDE8F08F1D46144608F060FADC
:102AF000022800F0EA809DF80E30002B4FD09DF8A0
:102B00000F20A3782088012A03F07F014FEAD31316
:102B100059D09DF812208DF8145061F3060263F32A
:102B2000C7128DF81220ADF8100008F017FAFEF762
:102B3000F3F99DF80F809DF80EB0694D8DF81500E2
:102B400008F1FF380BEB0804C4EB041464004FEAEF
:102B500008131A4601932B5BCBEB0B1AA2EB080967
:102B6000FF2B4FEA4A022C444FEA4909009253D006
:102B7000AE1D16444E44A246361B04AF183406E080
:102B8000A245B24448D0BAF80030FF2B44D03946B1
:102B90005046FFF7ADFE0028F2D10120A1E70DF16C
:102BA0000F010DF10E00FFF7D7FE9DF80F20A3785F
:102BB00020889DF80E40012A03F07F014FEAD313CD
:102BC000A7D1002CA5D09DF812208DF8145061F3E8
:102BD000060263F3C7128DF81220ADF8100008F05A
:102BE000BDF9FEF799F99DF80F809DF80EB08DF8AC
:102BF000150008F1FF384FEA0813CBEB0B1AA3EBD3
:102C0000080901934FEA4A034FEA4909009340F249
:102C1000FA520026324D01E018220526009905EBF4
:102C200009030B449B5AFF2B7FF45AAF4FEA0B1357
:102C3000019A0293A3EB0B03A2EB080249444FEA6B
:102C40004309CDF80080023EC8464FEA420A04AF6D
:102C5000894605E02068E850A3888B80013E1BD49C
:102C6000F4B204EB4404640004EB090039462B5A27
:102C7000FF2B2844F2D0FFF73BFE731CDBB203EBC3
:102C8000430354440AEB43034444434400282C4484
:102C900005EB0301DEDCE1D0019BDDF80080049848
:102CA000BA880136A3EB0808F6B2029B06EB46068B
:102CB0004FEA4808A3EB0B0B08EB460606EB4B0666
:102CC000AB19A85101209A800BE79DF80F30012B1A
:102CD0007FF406AF2388E82B7FF60DAF00E700BF37
:102CE000F00800202DE9F04F87B001298DF806107B
:102CF0008DF8070003D9002007B0BDE8F08F0D461E
:102D00009DF80710012901D1002DF4D128461E4657
:102D10001446FFF785FB9DF80750002D39D08542FA
:102D2000E9D89DF80630002B00F0AB80032E04D0CC
:102D3000042E55D1E378002B52D19DF807309DF831
:102D40000670574D013BC7EB0711DAB24900C3EBE0
:102D50000313C2EB021201F118095E0005EB4203F6
:102D60000B44B1440F460093A9444FF006080521D7
:102D70002378852B43D199F80430012B3FD101F101
:102D8000FF3A5146A9F1060908F1FF380029EFD1B1
:102D900020E0324602A88E232146FFF775FD8DF80C
:102DA00006500020FFF73CFB064658B101252A4695
:102DB000013502AB9DF806102078EDB2FFF722FC3A
:102DC000AE42F4D29DF806300133DBB28DF8063006
:102DD000002BE6D0FFF7F4FD012007B0BDE8F08F2F
:102DE000324602A821468E23FFF74EFD02AB207823
:102DF0009DF807209DF80610FFF704FCEAE75FFA4C
:102E000081FE4FF0FF03BEF1050FA9F800303FD05F
:102E1000B9F8060001F1FF3AFF2853460A463AD0B6
:102E2000CEF1040E5FFA8EFE09F10C0C002004E0D6
:102E30003CF806BBBBF1FF0F1FD002EB420206EBD2
:102E400042023A4403EB43032A4406EB43033B4468
:102E5000D2F800B045F803B02B4492889A807045B0
:102E600000EB010308EB000200F10100E0D11823A0
:102E7000009A4FF0FF01D15283E703EB43035B005D
:102E8000F6E70DF107010DF10600FFF765FD4DE7CF
:102E900001F1FF3AEBE701EB41035B00063BE7E79B
:102EA000F0080020F0B58BB00446FDF703FC394D67
:102EB0000023024628600193002C44D00023CDE972
:102EC0000233FF2404931046CDF8133032498DF8B5
:102ED000084002AA0F238DF80B408DF80E408DF8A4
:102EE00011408DF8144007F0EBFA28682B4F2A495F
:102EF00006AD2A460F2307F02FFB0020394600EBD2
:102F000040030AAAD418EA5C14F80F6C0A8007EB95
:102F10004303103C9A78A478C6F3060C6CF30602BF
:102F2000F609013066F3C7120528C4F34016C4F34E
:102F300003049A7001F1060101F8026C01F8014CDA
:102F4000DDD10BB0F0BD01AB6A46134907F052FB6F
:102F5000E8B9019B2A680F2BB0D110460E4902AA8E
:102F600007F0FAFA02AB0DF11701FF201A780AB93F
:102F70001870012403338B42F8D12868002CB5D097
:102F800002AA0F23044907F09BFA2868AEE72A68D3
:102F900094E700BFD860002001100500F008002071
:102FA000012801D9002070472DE9F0438C78012CCD
:102FB00087B004D02CB9002007B0BDE8F08300280A
:102FC000F9D10E461F4615460446FFF729FAB37895
:102FD0008342F0D83B462A46314602A8FFF754FC0C
:102FE000B2789DF80CC09DF81490012A0CEB0903EF
:102FF00023D005229342DEDC002BDCD0BCF1000F95
:1030000055D00027B846012504E005460137FFB238
:10301000BC4517D90298C05DADF80400002301AA91
:1030200021468DF806800028EFD0B078FFF74EFDDE
:103030000028C1D09DF80CC0E8E7002C14BF002286
:103040000522D7E79DF81490B9F1000F2BD0002787
:1030500004E045460137FFB2B94524D9049A9DF8EA
:10306000060039B202EB410C12F811809CF801E025
:10307000ADF80480F446CEF3060E6EF306004FEA78
:10308000DC1C6CF3C710012301AA21468DF8060051
:10309000B8F1000FDDD0B078FFF718FD00288BD015
:1030A0009DF81490D6E7FFF78BFC284684E70125AE
:1030B000CAE700BF2DE9F04F83B08D780F46164662
:1030C0001C468046FFF7ACF9854201D8BB78EBB9C6
:1030D00001238DF80680BB708DF80730B8F1000F22
:1030E00026D03A783270BB78B3700023F370337116
:1030F0003B78852B00F0B2808E2B40F0B380032309
:1031000073700521217003B0BDE8F08F8DF8068043
:103110008DF80730B8F1000F0AD0012B3A78E1D0D2
:103120003270BA78B27005210022F170327111E06C
:103130000DF107010DF10600FFF70EFC3B7833702F
:10314000BB78B3700023052233719DF806809DF88B
:103150000730F27003F1FF3E08EB0E0ACAEB0A1AC1
:103160004FEA4A0ADFF8049139F80A00FF2809EB10
:103170000A0275D009F106034FF01E0C1CFB083C37
:10318000CEEB0E130CEB430CACEB020C02F1180B64
:103190001346002102E01888FF2809D01D79012D6F
:1031A00003D0751801316871C9B29B456344F2D1EF
:1031B0003B78852B4DD08E2B48D10323737039F883
:1031C0000A50FF2D42D0284BC8EB081CCEEB0E1E38
:1031D00003EB4C0C4FEA4E0E1346F444C8EB0818B0
:1031E0000022ACEB030C4FEA4808174602E01D88AA
:1031F000FF2D21D018790128634419D102EB420038
:1032000006EB070B01F1060A0EEB400040440BF8F9
:103210000A5048447D1C807856FA85F500F0800BF2
:10322000C0F306004BEA0000023705F80A00FFB2BF
:10323000042A02F10102DAD147B10E4406310F44EB
:1032400000237371277003B0BDE8F08F0531C9B258
:1032500058E70531C9B20323737053E70521FAE734
:103260000021A5E705214DE7F6080020F008002021
:1032700030B40B4D0B4C0C4A002305212B60216010
:103280000188FF2908D00133052B42F8040B00F117
:103290000600F5D130BC7047236030BC704700BFDA
:1032A000EC080020E8080020D408002070B40B4E81
:1032B0000B4A336811680B4D5C1DB3FBF1F201FB47
:1032C0001232013355F8220020B99C42F5D1346006
:1032D00070BC7047336070BC704700BF1409002099
:1032E000E8080020D4080020084B186868B1084B93
:1032F00003EB800101E08B4207D053F8042B002A36
:10330000F9D18B4200F1FF30F7D17047E808002077
:10331000D40800202DE9F04F0B78076883B00190A6
:10332000002B42D00024DFF8D8E0DFF8D8B0A04668
:10333000A2464FF0010C15E0062B4ED87579C2F865
:1033400002409378557169F306039370DEF80030FC
:10335000108001340D78E4B20133A542CEF800307C
:10336000804622D904EB440307EB430637F81300E9
:10337000B37803F07F03013B0CFA03F94D46DBB24F
:10338000002CD9D0404518D1062B2ED89678DEF8DF
:103390000030C6F3060635435E1E65F07F05957066
:1033A0004BF826A04BF823A0D3E7019A0023136023
:1033B00018460B7003B0BDE8F08F019A16600A78CA
:1033C000062BA2EB04020A7098BF0120F2D90B4B26
:1033D00000201C6003B0BDE8F08F9378204664F3B2
:1033E000C713937003B0BDE8F08F019B1E600B788C
:1033F0001B1B0B70014B00201C60EBE71409002025
:10340000EC080020D408002070B54C78012CA4B042
:1034100005460BD0022C06D1FDF744FB0446B8B19B
:10342000022024B070BD002024B070BD8878A0F1C7
:103430006403DBB29A2BF3D9297A01F07F0102F001
:103440006DFE0128064629D9022832D0FF20EBE77D
:103450008022214604A825F025FD01A92846FDF774
:10346000F9FA4FF44872019BADF81020987802F0F9
:10347000C1FA019B8DF81200987802F0C5FA019B01
:103480008DF81300987802F0C9FA23468DF81400DD
:10349000019A04A80521FDF769FAD7E7284602F04A
:1034A00087FF224601460548FEF7AAFB002EB7D04B
:1034B000CCE7284602F068FFC8E700BF556300006C
:1034C00070B54C78022CA4B002D0002024B070BD9E
:1034D0000546FDF7E7FA064610B1204624B070BD58
:1034E0008022314604A825F0DDFC01A92846FDF71D
:1034F000B1FA287A4FF4607300F07F00ADF8103015
:1035000002F01CFA33468DF81200019A04A8032138
:10351000FDF72CFAFF20D9E730B589B0084C8DF8BB
:1035200017200025012202932488ADF81C40CDE924
:1035300000250DF1170307AA00F004F809B030BD0B
:10354000FC9202002DE9F04782B007460C989DF8E6
:1035500028509DF82C80894616469A46FDF7B6F805
:10356000A0B333780370737843700446B5B94A4604
:10357000384621460225FEF7C5FFE8B1154B0093FA
:103580004246034629462046FDF770FC012819D023
:10359000FDF7F4F8012002B0BDE8F0872A46514655
:1035A000023025F074FC02354A4638462146EDB219
:1035B000FEF7A8FF0028E1D1FDF7E0F8022002B0F5
:1035C000BDE8F087002002B0BDE8F087012002B01E
:1035D000BDE8F0875D07000070B586B000240123C8
:1035E00006460D46ADF814408DF816408DF817309C
:1035F00007F0D6FC20B90DB105A8A84706B070BDEC
:10360000084B029506AA1B8822F8083D3046CDE9F2
:10361000004423462146FFF795FF0028EBD106B072
:1036200070BD00BF0093020030B57E2283B0044617
:103630000021023025F036FC40F2623323806846D8
:1036400002F0AEFC9DF801309DF80020A27003F05E
:10365000F002C3F3030313439DF802509DF80300E7
:103660009DF804109DF80520E3709DF80630257143
:103670006071A171E271237203B030BDF0B57E229A
:1036800085B004460021023025F00CFC40F2626354
:10369000238001A802F0AAFC9DF805309DF80420C3
:1036A000A27003F0F002C3F3030313439DF8067006
:1036B0009DF807609DF808509DF80900E3709DF89B
:1036C0000A109DF80B209DF80C3027716671A571CA
:1036D000E07121726272A37205B0F0BD70B54B78D3
:1036E000013BA8B00446062B55D8DFE803F00C3F99
:1036F00054192A540400FDF7D5F9054600284CD08A
:10370000022028B070BD887802F0C8FC0128054668
:1037100040F29D80022800F0A680FF2028B070BDF6
:10372000881C02F0FDFC01280546F6D8204602F070
:103730001BFE012201464F48FEF762FA002DDFD042
:10374000EBE7FDF7AFF905460028D9D101A92046DE
:10375000FDF780F908A8FFF791FF2B4608A8019A0A
:103760000B21FDF703F90028CAD1D6E7FDF79AF936
:1037700005460028C4D101A92046FDF76BF908A829
:10378000FFF752FF2B4608A8019A0921FDF7EEF832
:103790000028B5D1C1E70020B3E708AE8022294652
:1037A000304625F07FFB204601A9FDF753F940F68E
:1037B000620302A8ADF82030CDE902550495ADF8BA
:1037C000145002F01FFC9DF80A409DF809308DF856
:1037D000244001228DF822208DF82330002C46D081
:1037E0000DF10B0318190DF1250213F8011B02F856
:1037F000011B8342F9D10DF125031C449DF81510DE
:103800009DF813209DF814506570C1F3400301F03A
:1038100001009B0043EAC003C1F3C0000343C1F3AE
:10382000800143EA4103E01C02F00F01C2F30312DE
:1038300042EA0112801BC1B2A370227030460023FD
:10384000019AFDF793F800287FF45AAF65E7204608
:1038500002F08AFD012201460748FEF7D1F9002D4A
:103860003FF44EAF59E7204602F0A0FD55E70DF1B9
:103870002504C3E7A13800007D38000010B5A4B0CE
:103880006C4684E8030004A8FFF7CEFE224604A895
:10389000024B0921FDF712F824B010BD051D0000F0
:1038A00010B5A4B06C4684E8030004A8FFF7E6FE58
:1038B000224604A8024B0B21FDF700F824B010BDEE
:1038C000051D00002DE9F0470C4649780139A6B0E6
:1038D0000646154609292ED8DFE801F0452DAD2D05
:1038E0002DD22D052D310DF10A01204600F096FD57
:1038F000054600BB8022294606A825F0D3FA3046AB
:1039000003A9FDF7A7F82068616894F808C0677AF2
:103910009DF80A60039A06AC03C42B4684F800C0E5
:10392000092506A80B218DF822708DF819508DF805
:103930002160FDF71BF8002026B0BDE8F08726A91E
:10394000002441F88C4DFDF785F8584D039A8DF809
:103950001C402346052106A80695FDF707F8FF2021
:1039600026B0BDE8F08706AF80220021384625F05A
:1039700099FA304603A9FDF76DF826A9002421F82D
:103980008E4D02A8ADF8084003F044F8BDF80830A9
:103990008DF81B3040F27A221B0A2046ADF8182021
:1039A0008DF81A3003F02EF8030A20468DF81C30EB
:1039B00003F028F8FF238DF82030ADF81E408DF875
:1039C0001D0001F0ABFF01388DF8210000F01CFD57
:1039D000030A8DF823008DF8223001244FF00208ED
:1039E0004FF00A090CE003F00DF8030ABB5520461E
:1039F00003F008F826AB1D44013405F8750CE4B259
:103A000001F08CFF18FB0496844207EB060A14FBB6
:103A100008F52046E7D302F0FBFF61000B318AF87E
:103A20000000C9B238460023039AFCF79FFFFF202D
:103A300026B0BDE8F0878022002106A825F032FAE2
:103A400003A93046FDF706F821462A4630460DF117
:103A50000A0300F053FB40F27A419DF80A40ADF8AA
:103A6000181006A8124B039A8DF81A400321FCF790
:103A70007DFF00283FF473AF022000F029FB6EE7C2
:103A8000214641F60F5007F09DFEA278E17813021F
:103A9000063DEDB203F4FE4319440095231D00F0EA
:103AA00029FCFF2026B0BDE8F08700BF7A0B030099
:103AB000D140000070B50D4616460446FCF7F2FFF3
:103AC00030B9324629462046BDE87040FFF7FABEBD
:103AD000022070BD2DE9F041A4B006461446884688
:103AE0008022002104A81D4625F0DCF924A900232A
:103AF00041F8903D3046FCF7ADFF270A40F27A7658
:103B000004A82B46009A8DF8128005218DF81440E8
:103B10008DF81370ADF81060FCF7D0FE30B1054B96
:103B200024A81B6840F88C3DA847012024B0BDE8BC
:103B3000F08100BF04930200F0B5A5B00C46064624
:103B4000802204A8002125F0ADF924A9002541F820
:103B50008C5D3046FCF77EFF270A2B4604A840F216
:103B60007A560125019A8DF8144005218DF81370BD
:103B7000ADF810608DF81250FCF7A0FE003018BFB1
:103B8000012025B0F0BD00BFF0B5A5B00D46074639
:103B9000164604A88022002125F084F924A90024D7
:103BA00041F88C4D3846FCF755FF24A9684621F8AA
:103BB0008E4DADF8004002F02DFF204602F022FFAE
:103BC000BDF800308DF81960190A070A40F67A121C
:103BD0002E0A8DF813308DF81210ADF810208DF8E4
:103BE00015008DF814708DF817508DF816608DF84B
:103BF000184002F00DFF23468DF81A00019A04A820
:103C00000B21FCF75BFE001B18BF012025B0F0BDA7
:103C10004FF0005240F2012312889A4210B4044639
:103C20000AD0084B187822804FF000534FF6FF71EE
:103C300019805DF8044B7047024901230B70184648
:103C4000F1E700BF180900204FF000534CF23C325E
:103C50005A80704710B5084CA368607B0BB1984739
:103C6000607B38B994F83330812B03D0BDE8104025
:103C700009F098BE10BD00BFD4090020094A13689E
:103C800023F4E06343F480631360BFF34F8F06496E
:103C9000064BCA6802F4E0621343CB60BFF34F8F58
:103CA00000BFFDE700500E4000ED00E00400FA0503
:103CB000F0B5584C584E2060584D59486160A2608C
:103CC00001210022226232602A6091B084F8321011
:103CD000016094F83320002B3BD062F07F0284F81F
:103CE000332009F03DFE10B1002384F8323006A8DD
:103CF00009F00AFE9DF81830012B1CBF002384F840
:103D00003230089B002510AE13F4803304A92846F6
:103D100008BF84F83230CDE9045509F065FE46F855
:103D2000345DFCF7C7FC334602AA3E49074606F05D
:103D300061FC002846D10DF10600FFF769FF68B964
:103D4000394A3A480021FCF7DDFA94F8320011B004
:103D5000F0BD02F07F0284F83320C2E7039B3149B3
:103D600038460CAA06F0F8FB039B0C2B38D0BDF8A4
:103D700034509DF836109DF837009DF828209DF8A6
:103D80002C30ADF826509DF830508DF8240061F3AA
:103D900006026FF306030E998DF82820812D8DF809
:103DA0002C308DF82510BDF8062026D0002340F2D7
:103DB00001218A4214BF0521FF2109A81A46FFF7F5
:103DC00089FEBDE70120CDE90C550CAA8DF8310024
:103DD000102314493846CDE90E5506F071FBAAE7C9
:103DE0009DF835109DF836009DF834508DF836104A
:103DF0008DF83700ADF83450BFE740F201239A4206
:103E000014BF0122FF22BDF8321009A8FFF7BCFE43
:103E100096E700BFD4090020080A00200C0A002001
:103E20001800002005100500C9400000940900207A
:103E30002DE9F0411B4DD5F800C0BCF1730F82B0E5
:103E400004460E460AD8184FDFF860803968131808
:103E5000DB0A01338B42C8F8003010D112F00303A3
:103E600018BFC3F1040304F5683018BFD2183146F7
:103E700009F042FE02B0BDE8F04104F0C5BD0CF10E
:103E80007400C0024FF40061019209F053FED8F8AB
:103E900000303B60019A0028E0D12B6801332B6091
:103EA000DCE700BF080A00200C0A002018000020F0
:103EB00038B5104D6B69044623B1184607F075FA02
:103EC00000236B610022FD2C2A7411D3FE2C0BD829
:103ED0002146094B0948FFF7FDFD00B938BD002018
:103EE000BDE83840FFF7B6BEBDE8384009F05ABD1E
:103EF0000222EDE7D4090020553C0000FA09002019
:103F0000134838B50368134DDB071BD4002108465E
:103F100009F0CAFD80B1104A104B0024012120464F
:103F200011601C6009F078FD04F06EFD29780848E6
:103F300006F01DFF204638BD2978054806F017FF1A
:103F4000012038BD012300212B7006F010FFDDE7B2
:103F500000200540100A0020180000200C0A002054
:103F600038B50D4C656900232374237725B12846A5
:103F7000BDE8384007F002BA0848094A60610121EB
:103F8000FCF7C0F94FF4FA61606907F071F9012894
:103F900000D038BD656138BDD40900201C0900205F
:103FA000ED40000070B5454C237B012B75D020D32C
:103FB000022B1DD1013806281AD8DFE800F04B1972
:103FC00019412A043900FFF79BFF054600284FD00E
:103FD00094F83330812B5CD094F82430002B4ED0F1
:103FE000FE20FFF765FF002384F8243063732373FA
:103FF00070BD012847D12073FFF726FE6069304B62
:10400000A36118B107F0D1F9002363610023237481
:1040100070BD237F0133DBB2052B98BF2377E7D92F
:10402000237C0133DBB20022092B2374227709D9C8
:104030000120FFF73DFF012200236273237370BD4F
:10404000FFF78EFF218B1F48013189B2BDE8704018
:10405000FFF772BD606918B107F0A7F9002363612B
:10406000A3680025257433B301209847257370BDDC
:104070000420FFF71DFF01232573637370BDFF202C
:10408000FFF716FFAFE7A368ABB10120BDE87040B2
:104090001847FD20FFF70CFFA5E70128ACD0022848
:1040A00008BF2073CCD0A268002121731AB1184632
:1040B000BDE870401047FFF7E1FD00BFD4090020C4
:1040C00000000F1DFA0900200620FFF76BBF00BF9C
:1040D000054B1B78FF2B00D0704710B10320FFF772
:1040E00061BF0220FFF75EBF160000200520FFF72A
:1040F00059BF00BF0720FFF755BF00BF2DE9F04FA4
:104100000A2A87B081460C461F4622D94B7A8E7AFE
:1041100091F808800B2A154606EB03261DD0614A4C
:10412000C97A92F83330C9074CBF43F0010323F03A
:10413000010382F8333002F06BFC0C2D0FD0237B8F
:1041400083420CD0584A042313703B7007B0BDE87B
:10415000F08F4FF0FF364FF0000802F059FC257A3F
:1041600001F0DCFB854206D34F4A032313703B70FA
:1041700007B0BDE8F08F06A9002321F8123D01A881
:10418000ADF8043002F046FC06F0CAFE83699B8954
:104190004FF6FC75063B1D40731C0AD0B54200D398
:1041A00036B9414A022313703B7007B0BDE8F08F67
:1041B0003546A378E67894F804B094F805A0404614
:1041C00046EA032602F01EFCBDF80430B34204D0D8
:1041D000354A002313703B70B8E74AEA0B2A824540
:1041E000F6D1304E96F83230002BBDD0A379D6F8F8
:1041F00000A0E47944EA0324BAF1000F0AD0404653
:1042000002F000FC2146D04720B9274A0123137051
:104210003B709BE70023254A33743377B2613373D5
:10422000F381234AD9F80000D9F80410D9F808C05E
:10423000C2F808C0C6F82600516099F80420B9F801
:1042400002E099F800C099F8010096F83310ADF833
:104250000CE0C2F306024FF001098DF80FC0059380
:104260008DF80E208DF80810ADF80A4004908DF8F6
:104270000990FCF71FFA102302AA0E4906F020F954
:104280004846FFF78FFEB8F1000F0B49064AF4814C
:104290004FF0FF0318BFC84686F81D800D701370DD
:1042A0003B7053E7D40900201600002000000F1DCA
:1042B000FA09002005100500D009002010B50A4CAD
:1042C000206A18B1BDE8104007F058B8074B084AFB
:1042D000236201461846FCF715F8206A4FF4FA618C
:1042E000BDE8104006F0C4BFD409002058090020E2
:1042F000F54000002DE9F0473F4C9DF82070257BEC
:10430000022D01D0BDE8F08760BBB4F8188020749E
:1043100008F101008142F5D19946384B16460D4609
:1043200093F800A0B8F1000F27D0574525D011060B
:10433000E8D5BEB232464946608B258307F042FA83
:10434000637F6083002B3CD063688BB1E389834239
:104350004CD00720FFF726FE636839464846BDE883
:10436000F0471847237F052BCCD9237C0A2BC9D9CA
:104370000720BDE8F047FFF715BE1FFA87F8424651
:104380004946608B258307F01DFA637F608353B134
:104390006368002BECD03306D8D4194B00221A7076
:1043A000FFF78CFFD8E7681E42460AFB00F049463B
:1043B000FFF73EFD32060AD40420BDE8F047FFF7C0
:1043C000F1BD324649460AFB08F0FFF731FD628B2A
:1043D000E3899A42CCD164210A4806F049FF0128BA
:1043E00090D10620BDE8F047FFF7DCBD044B012269
:1043F0001A70FFF763FFAFE7D4090020D00900204F
:10440000DC6000209409002008B506F089FD83696E
:104410009B894FF6FC70063B184008BD2DE9F04F14
:10442000044689B0007A234E884602F0EBFA08A9C8
:10443000002321F8123D814603A8ADF80C3002F0AC
:10444000E9FA02F0E5FAA278E578F389A17901901A
:1044500094F804A06779009194F807B045EA022522
:10446000DBB1BDF80C30AB4205D0002088F800006D
:1044700009B0BDE8F08F47EA0A27B945F5D1009B9E
:10448000F2894BEA03239A42EFD1637A019A93426D
:10449000EBD109F087FA0120EAE7FCF70BF91023CA
:1044A0000DEB0302044906F057F8BDF81230F38112
:1044B000D7E700BFD409002005100500114B1A787A
:1044C000C2B1114B1B78A3B1104902EB82020878EC
:1044D00002EB8202910090B100EB800000EB8000C3
:1044E0008000FF2B14BF1A460022091A0123FDF792
:1044F0001BBA1A46114610460123FDF715BA48109B
:10450000EFE700BF120A0020110A0020130A002062
:104510008278A2F16403DBB29A2B19D910B50D4849
:104520000D4982B10D4AFF2303700B701370FFF722
:10453000C5FF0B4B0B485024194601221C73FDF795
:104540005FFB012010BD054B02700A701A70EEE788
:1045500000207047120A0020110A0020130A0020D0
:10456000E0600020F14700002DE9F0414B78022B7C
:10457000A4B00C461646054647D0042B3BD0012B71
:1045800003D0002024B0BDE8F081934F00223A60B0
:104590007A60BA60BA8169680068AD68BD60032E50
:1045A0003860796067D02CD9E17801F01F0101EB08
:1045B0004100051DB54224DC00295CD004342118DB
:1045C0001D46904696469446164604E00025033460
:1045D0008C4200F09F8020785028F7D16378A07833
:1045E000042B00F0BE80052B00F0B980032BEDD129
:1045F00084460126EBE7FCF755FA074608B9022E78
:1046000041D8022024B0BDE8F081FCF74BFA002825
:10461000F7D1FDF729FA002875D0022E50D0F0D935
:104620008822002102A824F03DFC24A9002341F89F
:104630008C3D2846FCF70EFAA378502B674B00F010
:1046400094801B7840F28732ADF810202BB1644B78
:104650001B78002B14BFFF230023002201218DF8BB
:1046600013108DF812308DF814208DF815208DF868
:10467000162007211DE02046FFF74AFF0546012DC1
:10468000BFD1FF207EE70146882202A824F00AFC61
:1046900024A9284641F88C7DFCF7DCF9A378502B3F
:1046A00055D0002B53D040F287538DF814700493EB
:1046B00005210023019A04A8FCF758F9FF2061E7BF
:1046C0008822002102A824F0EDFB24A9002341F850
:1046D0008C3D2846FCF7BEF9404B197840F28733F1
:1046E000ADF8103029B13E4B1978002914BFFF21D5
:1046F00000218DF812100023019A032104A8FCF771
:1047000035F9FF203EE7354B354A1870354B1070B0
:10471000187082E7002E3FF474AFBEF1000F3FF433
:1047200070AF2F4B2D4983F80080944581F800C06D
:104730002C4B45D200221A70FFF7C0FE50230122F5
:10474000254929483B73FDF75BFA02201AE7274BFE
:10475000049343F60103ADF814300621A9E702469D
:1047600035E780464FF0010E31E71D4A1B7811787E
:1047700040F28732ADF8102003B3002914BFFF20A8
:104780000020184A8DF8120015788DF81630032293
:10479000502304244FF4AA608DF819108DF81C5092
:1047A0008DF813208DF815208DF814308DF8173002
:1047B0008DF81840ADF81A000D217AE71846E0E7A9
:1047C0001A70FFF77BFE50230122034906483B7312
:1047D000FDF716FA53E700BFE0600020120A002040
:1047E000110A0020130A0020F1470000870550003D
:1047F00030B5A5B015466C4684E80300802204A8B5
:10480000002124F04FFB2A7B234B502A1B7818D021
:1048100040F28732ADF8102063B901228DF81230D2
:104820008DF813200721224604A81C4BFCF746F8FC
:1048300025B030BD1A4B1B78002B14BFFF2300237B
:10484000EBE7174940F287320978ADF8102003B33F
:10485000002914BFFF200020124A8DF8120015789D
:104860008DF81630032250238DF8191004204FF4D0
:10487000AA61ADF81A108DF81C508DF813208DF830
:1048800015208DF814308DF817308DF818000D2193
:10489000C9E71846E0E700BF120A0020051D000026
:1048A000110A0020130A002008B5FDF7DDF828B929
:1048B0000349044A044B08701070187008BD00BF0B
:1048C000120A0020110A0020130A002070B5A6B0B9
:1048D0000D460646FCF7E6F800286CD16B78042BF1
:1048E00004463AD0062B36D18022214606A824F071
:1048F000D9FA304603A9FCF7ADF840F272710320F3
:10490000022507AB0DF10A02ADF818108DF807006B
:1049100002A90DF107008DF80A408DF8085002F049
:104920007FF89DF80A509DF808309DF80760039ABB
:1049300005F01F0545EA4315EDB205F01F012346BA
:1049400006A806F0070404318DF81B508DF81A40B4
:10495000FCF70CF8FF2026B070BD8022214606A887
:1049600024F0A0FA304603A9FCF774F826A940F217
:10497000725321F88E4D02A8ADF80840ADF81830FA
:1049800002F048F8BDF80810BDF80A508DF81B1069
:10499000090A23462E0A4FF480648DF81A10039AF0
:1049A0008DF81F5006A808218DF81E60ADF81C4038
:1049B000FBF7DCFFCEE7022026B070BD70B50D46D8
:1049C000017A4B0684B01DD0044601F07F0100201F
:1049D000FBF74AFF217A064601F07F010120FBF731
:1049E00043FFBEB160B132790368029232686478E5
:1049F000019200796A78297800902046FBF7DEFD65
:104A000004B070BD42786978287804B0BDE8704081
:104A1000FCF7BEBA304604B070BD00BF03680BB3EC
:104A200030B49478C4B11C1F046008780430087056
:104A30005168897860250D2401F0800003F8045C3A
:104A400003F8034CC1F30601927803F8022C0143EA
:104A500003F8011C30BC70475468A4786406E2D1A6
:104A600030BC7047704700BF70B54B78013BA4B0B5
:104A70000C460546042B6BD8DFE803F02F466A0B83
:104A80000300FCF70FF80446002864D0022024B08D
:104A900070BD494E3378022BF8D08B8847495BBAFA
:104AA0009AB20B80002AF1D045494088454B0880D6
:104AB000454AA1784548E4781980002319461470C6
:104AC0000380434A434802243470FBF71BFC28212F
:104AD000404806F0CDFBFF20D9E78B78092BD5D8CD
:104AE000CB78002BD2D03C4A3C480121FBF70AFC92
:104AF0003A4806F05AFCA378002B52D1384A13707A
:104B0000384AFF201370C2E7FBF7CCFF04460028A9
:104B1000BCD18022214604A824F0C4F9284601A96A
:104B2000FBF798FF2F4B2E4A1B7815788DF8123023
:104B3000019A8DF81350234604A840F273340421DF
:104B4000ADF81040FBF712FF00289FD1FF209EE731
:104B5000002024B070BD8022214604A824F0A2F9D0
:104B6000284601A9FBF776FF184B164A1988124B05
:104B70008DF81510090A16881D788DF81410234633
:104B8000019A8DF8126040F2736404A806218DF832
:104B90001350ADF81040FBF7E9FE00287FF476AF24
:104BA000D4E70F4BE2780D481A704FF47A7106F093
:104BB0005FFBA378A4E700BF5E0A0020540A002030
:104BC0005C0A0020580A00205A0A0020560A0020D9
:104BD000D54C0000180A0020E94B0000600A0020B4
:104BE0009C0A0020140A0020054A1378013BDBB21E
:104BF000137003B17047034A0348137006F0D5BB26
:104C00009C0A0020140A0020600A002070B5A6B09B
:104C100018B92A4A138801331380294806F0C5FBC6
:104C2000284A138823B1013B9BB21380002B3FD14C
:104C3000224E254D3388002B37D12B708022002146
:104C400006A824F02FF905A800F0A6F91F4B0024B0
:104C50001B88ADF800308DF802408DF8044006F056
:104C60007DF9FCF759F9328819498DF80A40234635
:104C700009882E788DF80500140A8DF81D208DF80E
:104C80001C408DF81A1006A8252540F2736402AA6C
:104C900006218DF81B608DF80850CDF80CD0ADF8CA
:104CA0001840FBF70BFE26B070BD01232B70C5E743
:104CB0002821034806F0DCFA26B070BD560A002011
:104CC000180A0020540A00205E0A00205C0A002016
:104CD000580A002010B5BEB006F02EF93EA90B23ED
:104CE0000C4A01F8F83D0C4B12881C78ADF80820EE
:104CF0000A4B8DF80A400022019306F07EFA012843
:104D000001D03EB010BD00210220FFF77FFF3EB072
:104D100010BD00BF580A00205A0A00200D4C0000A8
:104D2000014B00221A7070479C0A00200C480D4964
:104D30000D4AF8B500230D4F0D4E0E4D0E4C03805D
:104D40000E483B8033702B8023700B70137006F07D
:104D500072FB00B9F8BD0948BDE8F84006F025BB74
:104D6000540A00209C0A0020140A0020580A00203F
:104D70005A0A00205C0A00205E0A0020600A002017
:104D800038B5074B074D084C1A602870216006F0B3
:104D9000C7F890F82430054A03F03F03137038BD7C
:104DA000A40A0020A80A0020A00A0020B20A0020BD
:104DB000F0B5A3B004460F46164600217C2203A896
:104DC0001D4624F06FF8224600234FF41B74052182
:104DD00002A88DF80A708DF80B608DF80C50ADF8B4
:104DE0000840FBF7C3FD003018BF012023B0F0BD21
:104DF0002DE9F04105464878012886B00C460FD0D1
:104E0000022809D15D4B8A781B789A4200F088808D
:104E1000FF2006B0BDE8F081002006B0BDE8F081BB
:104E2000574E584FFBF764FEA378327803F03F03E8
:104E30009A4204F1040818BF00234146284618BFCF
:104E40003B70FFF7BBFDF0B938700020FBF750FE58
:104E500039780329DCD02A78A37896F800C0D5F8F1
:104E6000060012F00C0F03F03F032BD09C45DFF837
:104E700024C17CD04449D5F80600CCF8000033703A
:104E80000A70FF20C9E7A1783278D5F806000290B1
:104E900001F03F039A4205D1DFF8F8C0DCF800309A
:104EA0009842D2D0AB7AE27843F0010361F3460333
:104EB000C90961F3C713AB724146284600F0D0FC24
:104EC0003870C2E79C450190DFF8C8C008D1DCF813
:104ED000002090422C4A04D1107810B902209CE79F
:104EE000294AD5F80600CCF8000094F802C03370C7
:104EF000002011F0FD030CF03F0610701CD11C4681
:104F00002846FBF7CFFD002882D1284603A9FBF7EE
:104F1000A1FD23463A7803983146FFF749FF77E72A
:104F20001A4B1B6813B10979E0789847FBF7F0FF3B
:104F3000FF2006B0BDE8F081154B1B68002BDED0CA
:104F4000267962798DF810008DF80C608DF80EC00E
:104F500005958DF80F108DF80D2003A898479DF842
:104F60000F303B709DF810409DF80E60C8E7DCF8EC
:104F7000001088427FF47EAFB0E700BFB20A002085
:104F8000A90A0020B10A0020B00A0020A40A0020CB
:104F9000A00A0020AC0A002030B40B4A0B4C117858
:104FA00023780B4D6C2202700122427003F03F0205
:104FB000013342EAC11203F03F030021237029703C
:104FC0008270C17030BC7047A80A0020B20A00206D
:104FD0009D0A002010B4094B094A1B781178094A30
:104FE00003F03F036C2443EAC113127804700121DB
:104FF00041708370C2705DF8044B7047B20A0020A4
:10500000A80A00209D0A0020014BC170197070474A
:105010009D0A0020C0787047F0B5054648780138F1
:10502000ABB00C46102800F27E81DFE810F01B00C8
:1050300042007C0170007C019F007C01EE00F300C7
:105040007C0116011E017C01490151017C01110006
:105050002846FBF727FD0446002800F06681022061
:105060002BB0F0BD2AAB002603F89C6DC978A07860
:105070000093131FDBB2221D00F0D2FC0128EED1F9
:105080009DF80C30002B00F0ED80802231460AA8FC
:1050900023F008FF284604A9FBF7DCFC40F263314B
:1050A0000A910AA83346049A0421FBF75FFCFF200B
:1050B000D6E72846FBF7F6FC06460028CFD180222B
:1050C00031460AA823F0EEFE04A928468DF80C60AC
:1050D000FBF7C0FC2B7AA0788DF82A0003F07F0341
:1050E000009303AA0DF12B030BA940F26334ADF832
:1050F000284000F0FFFC9DF80C10049A04310AA827
:105100003346C9B2FBF732FC0028A8D1AAE02846F2
:10511000FBF7C8FC04460028A1D1802221460AA83A
:1051200023F0C0FE04A92846FBF794FC287A40F23D
:10513000635300F07F00ADF8283000F00DFD01460C
:10514000FF290D46234628BFFF250C0A8DF82C1099
:105150000AA8049A8DF82A5005218DF82B40FBF7F8
:1051600005FC00280CBFFF20022079E72846FBF74A
:1051700099FC044600287FF472AF0AAE80222146D3
:10518000304623F08FFE284603A9FBF763FC254633
:105190002346CDE90444CDE906447449302406226F
:1051A000012701E013F8983CD2B204F007042AA8C2
:1051B000104407FA04F41C4300F8984C11F8014F0E
:1051C000AA4228BF551C2AABE2081344002CE9D19F
:1051D00067480A9040F6E17304A92A460DF12F00B2
:1051E000ADF82C308DF82E5023F051FE2AAB591912
:1051F0007939891BC9B223463046039AFBF7B6FBBF
:1052000000280CBFFF2002202AE7887800F0B8FCB5
:10521000FF2025E72846FBF745FC044600287FF4DD
:105220001EAF802221460AA823F03CFE04A928468E
:10523000FBF710FC40F66323ADF8283000F08EFC3D
:1052400023468DF82A00049A0AA80321FBF78EFB57
:1052500000280CBFFF20022002E7023A91B2A01CF6
:1052600000F0F6FCFF202BB0F0BD2846FBF71AFC3F
:10527000064600287FF4F3AE802231460AA823F0C8
:1052800011FE284604A9FBF7E5FB2379E278A07814
:10529000ADF80C6003F00103009342EA00202123E3
:1052A00003AA0DF12A0140F66354ADF8284000F03E
:1052B00053FD9DF80C10049A02310AA833462AE0E7
:1052C0008978E01C01F00F0100F08EFCFF20C7E69A
:1052D0002846FBF7E7FB044600287FF4C0AE802297
:1052E00021460AA823F0DEFD284604A9FBF7B2FBFD
:1052F0002AA941F2630301F89C4D0DF12B00ADF892
:10530000283000F057FC9DF80C10049A8DF82A10F4
:105310000AA803312346C9B2FBF728FB00280CBFBB
:10532000FF2002209CE600209AE6802221460AA85F
:1053300023F0B8FD284604A9FBF78CFB41F2632358
:10534000ADF8283000F0AAFD0146050A8DF82B10B3
:105350000AA82346049A8DF82A500421FBF706FB7D
:1053600000280CBFFF2002207AE600BF089302004D
:105370006307C11F4B78012B01D00020704710B587
:10538000A4B00446FBF78EFB10B1022024B010BD80
:105390000146802204A823F085FD01A92046FBF7E1
:1053A00059FB214B40F25E22ADF810201B6802220F
:1053B0008DF812201A798DF813205A798DF814205F
:1053C0001A68E2B11168D1B1207A147900F07F0235
:1053D000944214D3400612D002F18042013A01EB0C
:1053E000820031F822308DF816301B0A8DF8153006
:1053F00043888DF818301B0A8DF817300BE0DA88D7
:105400008DF81620120A8DF815201B898DF818309A
:105410001B0A8DF8173004A80023019A0921FBF715
:10542000A5FAFF20B2E700BFB40A0020014B1860C4
:10543000704700BFB40A0020054B4FF480214FF4A1
:105440008062C3F880111960C3F880211A60704728
:1054500000E100E038B504460D4606F0CAFF034BF4
:1054600043F82450BDE8384006F0C7BFB80A002012
:105470000E4B70B5D3F82844D3F81C1445F255529E
:105480000C401440C3F824447CB1094E012594FA21
:10549000A4F0B0FA80F005FA00F256F8203024EAC1
:1054A000020403B19847002CF1D170BD00A0004068
:1054B000B80A00200E4B70B5D3F82844D3F81C145A
:1054C0004AF6AA220C401440C3F824447CB1094E89
:1054D000012594FAA4F0B0FA80F005FA00F256F82B
:1054E000203024EA020403B19847002CF1D170BDAA
:1054F00000A00040B80A002029B1012902D11430CF
:10550000026070477047103002607047436B9B0722
:10551000FCD411B9022343607047012343607047F4
:1055200030B40C7814B98368DB0729D44A788D78B5
:10553000CB68002A14BF4FF48052002235BB53BB06
:10554000CB780BB142F480720B790BB142F0400280
:105550004B790BB142F08002CB798D79097A1B012E
:1055600043EA85030B43134303603CB18368DA07C6
:1055700004D4436B9B07FCD40123436030BC7047C9
:10558000436B9D07FCD402234360CFE742F40072D3
:10559000002BD5D001E042F400720361D0E700BFD8
:1055A00029B1012902D11C300260704770471830C0
:1055B00002607047C378012B00D070477320FCF75E
:1055C0007DBA00BF7C20FCF779BA00BF10B50C4B48
:1055D0001B68B6B05C6803E09DF80030802B08D0F3
:1055E00000226946204601F0D1FF0128F4D036B0F0
:1055F00010BD05F0BBFC6946FAF73CFFF0E700BFC1
:105600000461002000B583B001A90748FBF722FA26
:10561000064B01981978FF22002301F03F01FFF7A4
:10562000C7FB03B05DF804FB300C00203C0C0020ED
:10563000094B834200D0704710B5084C237803B95A
:1056400010BD012206490748FCF7DAFA0028F7D016
:105650000023237010BD00BF700B0020AD0B002095
:10566000F86000207D380000C378012B00D070471F
:1056700010B58AB00AAC44230021074804F8243D41
:1056800005F075FB054B1B68214698684FF4FA72CC
:1056900005F0B3FD0AB010BD0020054004610020F4
:1056A00038B502888378B2F5B17F08D0B2F5907F23
:1056B00005D003F07F0300228370027138BD012101
:1056C0000222DB09C1700271F8D004460F4805F0D0
:1056D000B2FE28B10D4805F068FE0020FFF792FFEA
:1056E000A2680B4B1068516892680A4D07C3A378F3
:1056F000064803F03F0363F07F02A2702B704FF463
:10570000FA61BDE8384005F0B3BD00BF340B00209E
:10571000300C00203C0C002091B170B54D1E094E9C
:1057200050FA85F5441E01E0AC4207D014F8011F81
:10573000304623F05DFC0028F6D170BD012070BD1D
:10574000012070470893020030B5204B20491868AB
:1057500089B01C2301AA04F0FFFE28B99DF804308B
:1057600003F00303032B0BD01A491B4A002310201C
:10577000087110710B730B751373137509B030BD7D
:10578000144DA86800F11004034601E0A3421BD0A9
:1057900013F8011B1A1A5D29D2B2F7D10E482A71EB
:1057A00002680023013A2B732B7501E0102B05D002
:1057B00012F8011F01335D29DBB2F7D1002203711A
:1057C0000273027509B030BD1022E7E72C0C0020EF
:1057D000081005001C0000207800002008B5FFF725
:1057E000B3FFFBF7EBFB0248BDE8084005F086BBC2
:1057F00038000020002170B504460846FAF772FD13
:10580000124B1C70FBF75CFF0120FBF7D3FF104B22
:10581000104800241C70FFF709FEFFF795FFFAF708
:10582000BBFE0546FAF7BEFE0646FAF7C1FE314654
:1058300002464AF6BB23284605F0BAFF064B074846
:105840000222012101F098FA204670BDF06000208C
:10585000AC0B00202093020038000020716400008F
:105860000B78203B6E2B57D8DFE803F03A5656569C
:1058700056565656565656565656565656565656C8
:1058800056565656565656565656565656565656B8
:1058900056565656565656565656565656565656A8
:1058A00056565656563C5656563E40565656424406
:1058B0005656565656565656465656565656484AB2
:1058C0005656565656564C56565656564E5656568A
:1058D000565052545656565656563800FCF7DABCB7
:1058E000FDF792BDFCF736BCFCF78EBAFFF742BD60
:1058F000FDF7F4BEFFF790BBFFF77ABAFEF7E6BFFD
:10590000FFF7B2B8FEF7D6B8FDF7DABDFCF73EBB3D
:1059100005F044BEFEF728BE002070470120704706
:1059200018B100230B704B70704710B50C46FAF796
:1059300033FE2070FAF736FE607010BD10B5FAF72E
:10594000EDFDFAF7C3FD0446FAF712FE40F6B73351
:105950009C421FD8B4F5166F1AD3642303FB04F3DB
:105960000D4A0E48A3F56A33A3F5C073A2FB0323C7
:10597000C3F38713A0FB0320C00800EB80004000A6
:105980001B1ADBB2042BC0B201D90A30C0B210BD61
:10599000FF2010BD642010BDB5814E1BCDCCCCCCFA
:1059A00038B500200E4DFFF7C9FF2B7898420AD07A
:1059B0000A339842044606D00A4B0B48224600217F
:1059C000FDF7AAFD08B1002038BD084B084918684A
:1059D0002C702A46012304F073FD012038BD00BF5E
:1059E000F4600020B5550000740000202C0C00204D
:1059F00002100500034B587880F0020040F340008D
:105A0000C0B27047200C0020034B587880F0020091
:105A100040F34000C0B27047200C002000207047C7
:105A20002DE9F043BDB0449F0FB100243C701F2509
:105A30000D41EC070ED51D4690460C4606466BB14F
:105A4000043B062B06D829461046FFF765FE08B131
:105A5000142E07D901203DB0BDE8F0830029F9D10B
:105A6000142EF7D8DFF888902049D9F800006A464C
:105A7000F02304F071FD8EB914BB0DF101030DF19B
:105A8000F10203F8014C1C605C601C819C720C33B9
:105A90009342F6D1A7B101233B7011E0701E00EBD9
:105AA000400083003CAAD618013306F8F04C0DEBF9
:105AB00003076CB94DF803407C603C8106F8E54C67
:105AC0006A46D9F800000949F02304F0F9FCC1E75F
:105AD00041462A46384623F0DAF97819C5F10A0218
