:1000000000000120B1010000DD010000DD01000061
:10001000D9D00000DD010000DD01000091170000D3
:100020009117000091170000911700003187000020
:10003000DD010000DC01000091870000F587000071
:100040009D6C000021580200DD010000DD01000070
:10005000894F0200795802002D58020045580200CD
:1000600025580200DD010000C9530000DD01000039
:10007000DD010000DD010000DD010000DD01000008
:10008000DD010000DD0100000D540000DD01000075
:10009000DD010000DD010000DD010000DD010000E8
:1000A000DD010000DD010000DD010000751A000027
:1000B0007D580200295802003183020021D7000038
:1000C000B55802005D690000C5400200DD01000076
:1000D000DD010000DD010000DD010000DD010000A8
:1000E000DD010000DD010000DD010000DD01000098
:1000F000DD010000DD0100009117000010B5054C86
:10010000237833B9044B13B10448AFF300800123C3
:10011000237010BD980400200000000070D402007D
:1001200008B5034B1BB103490348AFF3008008BD7A
:10013000000000009C04002070D40200154B002B2E
:1001400008BF134B9D46A3F5803A00218B460F460E
:100150001348144A121A28F0CDFD0F4B002B00D083
:1001600098470E4B002B00D0984700200021040038
:100170000D000D48002802D00C48AFF3008028F095
:1001800009FD200029000BF069FA28F0EFFC00BF00
:100190000000080000000120000000000000000036
:1001A00098040020E07B0020000000000000000018
:1001B000064880470649074A074B9A42BEBF51F896
:1001C000040B42F8040BF8E7FFF7B8FFAD0200009C
:1001D000F4D402000400002098040020FEE700BFD1
:1001E00000487047C0175302114BD3F8943003F006
:1001F0000703023B032B18D8DFE803F00D021410AD
:100200004FF400400A4BD3F80031C3F30423013309
:10021000B0FBF3F07047074B1868F3E7064B18681C
:100220004008EFE7054B1868ECE7034B1868E9E76F
:1002300000400E40080000200C00002010000020AC
:1002400008B5FFF7D1FF054B054AD3F80831C3F3D2
:1002500008230133B0FBF3F0106008BD00400E40EE
:1002600004000020014B1868704700BF0800002000
:1002700008B50B4B0B491860D1F8943003F0070315
:10028000022B00D008BDFFF7AFFFD1F80831064AB6
:10029000C3F308230133B0FBF3F0106008BD00BFC7
:1002A0000800002000400E4004000020044B054AD6
:1002B0009A60D3F8882042F47002C3F8882070470F
:1002C00000ED00E0000000004FF40040704700BF68
:1002D0004FF47A70704700BF014B1868704700BF39
:1002E0001000002010B5064C82B00346009104F1C6
:1002F0002C0220460C210BF005F802B010BD00BF07
:10030000B404002038B50C4C0546134620460A4676
:1003100029460BF03FF802280CD048B995F8343044
:10032000E2181A3382F85C0044F82300012038BD3B
:10033000002038BD012038BDB404002001480AF077
:10034000F1BF00BFB4040020014601480BF04EB8D5
:10035000B40400202DE9F04385B00678BDF8307074
:100360009DF834C0002E42D006F1FF395FFA89F4BF
:1003700000F1100909EB041986460446002594F89B
:100380000480B8F1030F18BF013504F1100418BF41
:10039000EDB24C45F3D1AE4229D043B38DF80020E5
:1003A000ADF80270009D25F47F45012D1FD0022A73
:1003B00003D1BCF1000F1AD0CFB1804603E008F1A1
:1003C0001008A04517D098F804509542F7D1B8F816
:1003D0000650BD42F3D198F808506545EFD1D8F8E2
:1003E0001050AB42EBD1D8F80C50A942E7D1002015
:1003F00005B0BDE8F083002EF9D00479032C4FF04E
:10040000000408D00134B4420EF1100EEFD09EF873
:100410000450032DF6D100EB0410C0E90313027160
:100420002FB1C780BCF1000F01D080F808C00120B7
:10043000DEE700BF017081B130B4002422460346DC
:10044000032501348C421D71DA801A72C3E903223C
:1004500003F11003F5D130BC7047704710B500248C
:1004600082B01346CDE900442246FFF773FF02B085
:1004700010BD00BF027842B3F8B50E4607460446E9
:1004800000250BE011D3022B03D13179E388994287
:1004900016D00135AA4204F1100410DD2379012B96
:1004A000F0D13179E3889942F3D1D4E9030331469D
:1004B00098473A780135AA4204F11004EEDCF8BD01
:1004C0007179237A9942F0D0E3E7704770B5124C06
:1004D00084B00023CDE9013320460393E0220923B1
:1004E00001A9FF2603258DF805308DF809608DF8E8
:1004F00006508DF8082006F0AFFC0123A3602046CB
:10050000C368DB07FCD4836C41F2883000FB03F046
:10051000000B04B070BD00BF0020004010B582B0D9
:1005200000241F2301210F48ADF802308DF8004050
:100530008DF801408DF804408DF805400BF0A4F9CA
:10054000204606F079FD21468DF80200064806F0A7
:10055000D5FC69468DF80300044806F0EDFC02B0B6
:1005600010BD00BF00B20400C0CF6A0000200040F0
:1005700008B5044806F030FD00210348BDE80840F6
:100580000BF082B90020004000B20400014B186A51
:10059000704700BF4C8F0200014B93F82200704758
:1005A0004C8F0200014B93F8210070474C8F0200E2
:1005B000014B93F8200070474C8F02002DE9F84F53
:1005C00099460C46924680469DF828B09DF83070BA
:1005D0000AF0EEFB00F0CEFC06460AF0DDFB4368B5
:1005E0001D780B9B43B13A460B98214628F018FB27
:1005F00010B10120BDE8F88F6B0706D5032E18D087
:10060000042E0AD00020BDE8F88F26BBA4F12000FC
:10061000B0FA80F04009BDE8F88FB8F1040F1CD0A3
:10062000722CEFD1BAF1040FECD1B8F1000FE9D17F
:10063000DFE7B8F1030FE5D1B9F1000FE2D05A4678
:100640004846214628F0ECFA0028D2D1202CD0D000
:10065000042EE5D0D6E74645FAD1B9F1000FEED128
:10066000F6E700BF30B58BB00C4605460AF082FBBA
:100670006523002201A980688DF808508DF8094093
:100680008DF804300AF0E3FC0BB030BD38B5064CF1
:1006900006490546204609F071FD10B92C6001207D
:1006A00038BD002038BD00BFA0050020308F0200FB
:1006B00000487047A005002090220021014828F042
:1006C00019BB00BFF005002010B5084C237853B9C2
:1006D0000346012204F10C006360227004F0FAFB6F
:1006E00004F1100010BD002010BD00BFF005002077
:1006F00008B5054B984201D0002008BD043804F02D
:1007000021FC012008BD00BF000600202DE9F843B0
:10071000104D2C78012C02D00020BDE8F88305F1A3
:100720000C09804648460E46174604F0F1FB484641
:1007300004F00EFC30702FB91035C8F80050204678
:10074000BDE8F883C8F80090337804333370384636
:10075000BDE8F883F005002038B5064C636805460F
:1007600003B19847EB78012B00D038BD00236360BC
:10077000237038BDF0050020024B00225A601A7029
:10078000704700BFF005002010B5134C82B06278AE
:100790008DF8060000210123ADF804108DF8073014
:1007A0009AB12378C3F3C20304EB8301496829B1EA
:1007B00001A8884723786278C3F3C2032178013304
:1007C000013A63F3C50162702170044B1B6803B1E9
:1007D000984702B010BD00BF44600020880600208A
:1007E00010B50E4C627892B12378C3F3C20304EBC8
:1007F0008301496821B1884723786278C3F3C20333
:1008000021780133013A63F3C50162702170044B12
:100810001B6813B1BDE81040184710BD20600020D0
:100820008806002070B40B4D0B4C2A7823780B4EB1
:1008300002F0F8026FF3C5022A7003F0F8030022F9
:1008400062F3C5036A706270054A237030601160FC
:1008500070BC704744600020206000208C0600209F
:100860008806002070B5134D2B7A8B421AD3C9B17C
:100870000C4606460AF09CFA00F07CFB50B1E86892
:100880001C216FF01B0311FB043101447EB101F107
:10089000140070BD46B9E9681C2000FB0411A1F1E9
:1008A000180070BD002070BD05F1180070BD01F189
:1008B0000C0070BD9006002030B5C1B001905068AA
:1008C0008DF80310017901B99170254D69780729D8
:1008D00002D9012041B030BD287800F0070005EBB7
:1008E0008000144643600DF1030101A804F020F8D4
:1008F00063681C4819889DF803202378ADF8BC1064
:10090000039001998DF810300DF1120028F0E7F9ED
:10091000636862785B7914498DF8C23042F0010255
:10092000002308689DF803408DF8C020ADF8BE3064
:100930001A468DF8C13002A901238DF811408DF8B7
:1009400008300AF084FB0028C4D12B786A78591C3F
:1009500061F3020301322B706A7041B030BD00BFF9
:1009600044600020890700008C06002030B5264C2A
:10097000C1B0019060788DF80310072841D8207825
:1009800000F0070004EB800015464360002A38D0D1
:100990000DF1030101A803F0CBFF6B681B48198818
:1009A0009DF803202B78ADF8BC10039001998DF8C9
:1009B00010300DF1120028F092F96B6814495B7940
:1009C0006A788DF8C230002308689DF803508DF8CE
:1009D000C020ADF8BE301A468DF8C13002A90123FF
:1009E0008DF811508DF808300AF031FB50B923789A
:1009F0006278591C61F3020301322370627041B0C6
:100A000030BD012041B030BD20600020E107000072
:100A10008C06002070B584B013469DF808509DF8F0
:100A20000E4012781E898DF804200A46597B8DF8F5
:100A300005100023014663F300046FF3060501A8C7
:100A4000ADF806608DF808508DF80E408DF80C302A
:100A500004F064FE04B070BD70B40479104B114A08
:100A60009E78536014F07F0518BF01250A60C4F317
:100A7000060441881D7164F3060644781980252117
:100A800011709E705C7103789B0744BF272313701D
:100A9000037A0021C3F306039370517070BC704752
:100AA00080060020B0060020037813F00C0F0DD153
:100AB00090F90830002B0A4B0DDB1878A0F10100EB
:100AC0000022B0FA80F040091A707047044B0022EF
:100AD00001201A707047002201201A70704700BF71
:100AE00090060020037813F00C0F14BF01200020A3
:100AF000704700BF014B1870704700BF9006002080
:100B0000F0B5404D404E2B78326883B0002B42D078
:100B10009A423E4C0CBF01230023E37000284DD0C5
:100B2000028883782280A370394B1B680BB1374849
:100B300098473368297899422BD2364A364B126847
:100B40001B7850788DF800008DF8013000292ED0E8
:100B500093788DF8023002F00BFB304A038812784C
:100B6000019012F00702238002D02D4B1A7842BB6D
:100B70002C4F2D4E39463046FFF7C8FD30BB244B75
:100B800020801B6802210122A170E2700BB11F4876
:100B9000984703B0F0BD002AFBD01E4A1E4B1268D6
:100BA0001B785178194C8DF800108DF80130990799
:100BB00044BF43F004038DF80130C9E72080A070E2
:100BC000B2E78278D243C2F3C012D1E739783068F5
:100BD000164B6A46FFF770FE20B92B7801332B7055
:100BE00003B0F0BD002502232580A37002F0DEFAD9
:100BF00028B1E570064B1B68002BC8D1C9E701235B
:100C0000E370F7E7D1060020CC060020D4060020D0
:100C100068600020C8060020D8060020D00600200A
:100C2000B9060020B8060020C4060020010B000011
:100C30000020FFF765BF00BF30B5194C194D85B0D6
:100C400000E048B306220021684628F053F82068E7
:100C50006A4600F10801043002F0BEFA9DF9023044
:100C60002870002BEDDA23680F4910485C789A78D9
:100C70008DF808408DF80A20002409780C4B006894
:100C8000CDF80CD002AA8DF80940FFF715FE001B25
:100C900018BF012005B030BD022005B030BD00BF37
:100CA000C8060020C0060020B8060020C4060020A8
:100CB000C10D00002DE9F041C6B068461D210AF0C3
:100CC000F8F80024354B364F1C702146AA220DF14E
:100CD0002A00344E3C7028F00DF8334B32781968F6
:100CE000324D0DF12A0027F0FAFF3278304B8DF8A3
:100CF00029208DF82840099302F058FA012828602D
:100D00002AD92C4B1E783EBBDFF8B080D8F80030D3
:100D10009B69187910F0070422D102F029FA0178B2
:100D200068460AF0BAF82B6801349C42F5D369464C
:100D300003231D2235A88DF8203027F0D0FFD8F8E6
:100D4000003008A9186800220AF081F9003018BFA5
:100D5000012046B0BDE8F081022046B0BDE8F08138
:100D6000154B1B681B788DF8D530FF238DF8D430D8
:100D700000F000F9D8F800308DF8D6003246186837
:100D800008A9042302243C708DF820300AF05FF992
:100D9000003018BF012046B0BDE8F081D106002028
:100DA000D8060020B8060020C4060020CC0600208B
:100DB000310C0000C0060020C8060020BC06002040
:100DC00070B5837804462BBB224B1B783BB1FFF7F1
:100DD00033FF012805462CD0022800D070BD02F058
:100DE000E5F91D4B186048B91C4B1B680122E270E5
:100DF000002BF3D02046BDE870401847FFF75AFF9C
:100E00000128054615D00228E8D10020BDE8704031
:100E1000FFF776BE02F0CAF940B10023E3700F4B32
:100E20001B68002BD0D020469847CDE70123E37004
:100E3000F5E70223A37002F0B9F940B9E570074B5A
:100E40001B68002BCAD02046BDE87040184700231D
:100E5000E370F4E7C0060020CC06002068600020A4
:100E6000014B1860704700BFBC06002043B12DE95C
:100E7000F0411E7A0EB100B121B90020BDE8F08129
:100E8000002070471646DFF884801A4A069F1760D4
:100E9000C8F80030184A194B10601970FFF728FC89
:100EA0000028EAD0164B174A1B6817499B690E7039
:100EB0001B79137013F0070202D0321C18BF0122F5
:100EC0000E490D48FFF722FC0028D6D0D8F8003094
:100ED000586802F02FF9FFF7AFFE48B10128CCD0D7
:100EE000FFF7E8FE20B10128C7D00020FFF708FE79
:100EF0000120C3E768600020C4060020B806002077
:100F0000BC060020D0060020B9060020C80600203C
:100F10000020FFF7F5BD00BF08B509F06BFF38B939
:100F20000B4B53F8042B92E8030083E8030008BD41
:100F300009F03EFF420708D0054B53F8042B083256
:100F400092E8030083E8030008BD0306E8D5F3E751
:100F5000E006002008B5054A054B10601960FFF750
:100F6000DBFFFFF7A9FB012008BD00BFE006002062
:100F7000DC06002041070BD4820707D4C30709D43D
:100F800010F0800F14BF042000207047022070472B
:100F9000032070470120704710B5FFF7BDFF034BDA
:100FA0001B6813B1BDE81040184710BDDC060020D7
:100FB00030B5124B0C461D68187A596862792B6956
:100FC00085B0CDE901102D7D217994F8B50000950B
:100FD00094F8A450FFF7F2FA08B905B030BD2946DD
:100FE00004F1A802201DFFF715FD054B1B68002B1F
:100FF000F3D005B0BDE83040184700BFE006002040
:10100000DC06002070B5094B1C681E7A5D682369F8
:1010100084B0CDE901561546227D00920A4601466C
:101020002846FFF7CBFA04B070BD00BFE0060020F1
:10103000062817D800EB4000C0000B4A135C02449E
:1010400043B91A4618460029114614BF042201224A
:101050000BF030BE1369107AD26813F1FF3318BF5A
:101060000123F0E70023ECE734900200062819D8AA
:1010700000EB4000C000164B1A5C184492B1027A93
:10108000144B30B4D0E9034502EB420212010120B7
:101090001344A04099B9012D15D003F1806330BCF1
:1010A0001860704729B90B4B03F1C0630120186029
:1010B0007047084B03F180630120186070470129D5
:1010C000EBD1002DE9D103F1C06330BC186070474B
:1010D000349002000CA00040062810B406D800EBA3
:1010E0004000C0000C4B1A5C18444AB90B4B01215C
:1010F00018685DF8044B401AB0FA80F04009704758
:10110000027A074BD0E9034102EB4202D2011344B9
:1011100023449B00ECE700BF8C8F02008003144245
:10112000E000851038B54A4D4A4C2B6822780A33C6
:10113000012A2B6022D06378012B31D0A378012BB8
:1011400040D0E378012B4FD02379012B5ED0637917
:10115000012B6DD03F4B991D13F8012B42B98B42E7
:10116000FAD13D480AF064F83C4B00221A7038BDB1
:101170002A6847F230539A42F3D8F8E7384A2B6886
:1011800012689B1AB3F5967FD5D3022343202370B0
:1011900000F0A6FC334B43221A706378012BCDD1AB
:1011A0002F4A2B6852689B1AB3F5967FC6D3022349
:1011B0004820637000F094FC2A4B48221A70A378F0
:1011C000012BBED1264A2B6892689B1AB3F5967FF5
:1011D000B7D302234D20A37000F082FC214B4D2297
:1011E0001A70E378012BAFD11D4A2B68D2689B1A85
:1011F000B3F5967FA8D302235220E37000F070FC71
:10120000184B52221A702379012BA0D1144A2B6853
:1012100012699B1AB3F5967F99D302235720237145
:1012200000F05EFC0F4B57221A706379012B91D1AD
:101230000B4A2B6852699B1AB3F5967F8AD3022317
:101240005C20637100F04CFC064B5C221A7081E755
:1012500058070020140700201C070020EC0600207F
:10126000F806002014000020062808D800EB4000F3
:10127000C000044B1A5C12B1184400697047012089
:10128000704700BF34900200062808D800EB4000E9
:10129000C300044AD05C20B1134458697047002051
:1012A0007047704734900200062807D800EB4003CF
:1012B000034A12F833300BB1FFF7BABE704700BFD4
:1012C00034900200062807D800EB4003034A12F8C6
:1012D00033300BB1FFF7CABE704700BF3490020035
:1012E00001280CD0002302281A4604D14FF4617162
:1012F000642000F019BB1946184600F015BB704772
:10130000062808D800EB4000C000044B1A5C12B15C
:101310001844407D70474020704700BF8C8F02000A
:10132000062800D970472DE9F04147003B18394E97
:1013300016F8333082B0EBB1374D95F80080044693
:10134000B8F1000F19D03B1906EBC3031A7D93F8CF
:101350000880DD6822BB012340462946CDE90033E1
:101360002A460BF061FC2D49E8B202B0BDE8F0411D
:1013700004F01CB802B0BDE8F081294A29480121D7
:10138000FEF7C0FF04F004F8274B2848A0220121F3
:1013900083F8122383F80A2380F800802970D2E7AB
:1013A000B8F1050FD7D801A353F828F0FB130000BC
:1013B000F113000005140000E713000057130000AC
:1013C000C5130000022D22D0072DC4D14FF40031E7
:1013D000381906EBC00608463369012B18BF0021F7
:1013E0000BF0AAFCB7E70E2DB5D14FF48011EFE753
:1013F0000D2DB0D14FF00071EAE7032DABD14FF0C6
:101400008071E5E70A2DA6D14FF08051E0E74FF457
:101410008031DDE78C8F0200F406002059160000B1
:10142000251100001C07002000E100E0EC06002070
:1014300006282DE9F84304460D46904637D8460065
:101440003318DB00374FFA5C3B4482B31B7D1BB182
:10145000354B364AC3F824242046FFF73DFE0128C9
:10146000814636D0264407EBC607787DB8F1000FD9
:1014700021D12F4A135DC3B12E4B2F491B6851F860
:10148000241002F804805B1A41F2883293421AD881
:10149000142B0AD9B3F5967F0DD30130C4B2204680
:1014A00075B900F00BFB254B1C70BDE8F88340209C
:1014B000B8F1000FDDD00230C4B22046002DF0D0CC
:1014C00000F00EFBEFE70430C4B22046002DE8D058
:1014D000F6E7174E335D002BE7D19DB1184D154F40
:1014E0002B7803F0FF0233B916483A600A2109F05D
:1014F00029FE85F80090104B3A6843F82420012318
:101500003355D2E70F480B4F09F0BFFE0028F2D148
:101510000C483D600A2109F0D5FD094B83F8009085
:10152000E9E700BF8C8F020000A000400000131309
:101530001407002058070020F8060020140000209F
:10154000EC0600201C0700202DE9F0410446174658
:101550000D4649B9062827D9002A6BD1394E4124B6
:10156000204600F0ABFA37E006283BD84600331897
:10157000DB00DFF8D48018F803204344E2B11B7D80
:10158000002B3CD12046FFF7A7FD012840D0A7B192
:10159000264408EBC60898F815703DB3384600F0AD
:1015A0009FFA284E377009E046003318DFF898801C
:1015B00018F83330002BE5D1AFB9224E062C05D8F0
:1015C00004EB4404E400204B1A5D9AB94124002D39
:1015D000C6D0204600F084FA1C4B347000221A70EA
:1015E000BDE8F0815AB34027002DD7D1384600F02E
:1015F00065FAD6E723445C7D0134E4B2E7E7144B97
:10160000144AC3F824242046FFF766FD0128BED102
:101610000E4F3B78002BE3D1344408EBC40898F814
:101620001540204645B900F049FA064A01231470D6
:101630003B70D5E74027D9E700F052FAF5E741249F
:10164000004EC6E7140000208C8F0200ED0600203B
:1016500000A00040000013130A282BD006D9CD2883
:1016600019D0CE280DD00B281AD0704707281CD0CF
:1016700009280BD00628F8D1002210460121FFF7D7
:10168000D7BE002201210520FFF7D2BE0022012192
:101690000620FFF759BF002201210420FFF7C8BE32
:1016A000002201210320FFF7C3BE012108460022CA
:1016B000FFF7BEBE002201210220FFF7B9BE00BF26
:1016C0002DE9F04101212048204C214F214E0AF004
:1016D000DBF8214B00251D6004F1A80823780322C4
:1016E00043B1D4E9031313F1FF33207A18BF012368
:1016F0000BF0E0FA1834444507F8015F46F8045F40
:10170000ECD1164B164A1749174D01201861D2F833
:101710001C341B0C1B040B600024C2F824342B78EF
:101720000121E0B20BB1FFF783FC0134072C05F176
:101730001805F4D101230422052100200BF0BAFA88
:101740000020BDE8F08100BF00350A008C8F020048
:1017500013070020F40600205807002000300E4038
:1017600000A00040F006002034900200BFF34F8F2D
:101770000549064BCA6802F4E0621343CB60BFF32D
:101780004F8F00BFFDE700BF00ED00E00400FA0549
:1017900008B501210846FFF769FC00210220FFF788
:1017A00065FC00210120FFF761FC01210220FFF709
:1017B0005DFCEEE710B5642849D8DFE800F042335D
:1017C00045454842334242334848484848484848DB
:1017D000484848484848484848484848484845458F
:1017E0004848484848484848484848484848484879
:1017F0004848484848484848484848484848424275
:101800003333424242484848484848484848484894
:10181000484848484848484848484848484845454E
:10182000424242000124002304220E2101200BF039
:1018300041FA234604220F2101200BF03BFA01203C
:1018400010BD00240123EFE700242346ECE700202D
:1018500010BD00BFF0B52C4F3C7885B0002C50D1A6
:1018600001210646FFF720FD01212848284D09F0F7
:101870005FFA0A2127480AF0B1FB042126480AF042
:10188000ADF80121254809F0FFFF0121224809F0A8
:10189000FBFFEB6A224A43F00803E021EB624FF0C2
:1018A000006382F81B1330461360FFF7EDFC2B6CCE
:1018B00023F001032B646B6C23F01F03184368644F
:1018C0003046FFF7D1FC174A8DF80040B0FA80F39C
:1018D0005B09284669468DF804308DF805301360A1
:1018E0008DF801408DF802408DF803408DF80640D8
:1018F0008DF807408DF80840039403F0BDFD0123E7
:101900003B7005B0F0BD00BF810700205C070020E0
:101910000060044002001E008006160030253E00D4
:1019200000E100E0840700202DE9F043484C2478D2
:1019300087B09CB1032875D90844FA250F4645495C
:1019400005FB00F0A1FB00151646AD0952B1B5F537
:10195000803F02D2B2F5803F76D30024204607B004
:10196000BDE8F083B5F5803FF7D291460126DFF858
:10197000F48001932A464046002103F069FDFA22D3
:10198000344902FB07F7A1FB0737A5EB97173A4647
:101990004046012103F05CFD32464046002103F041
:1019A000ABFD01224046114603F0A6FD1C212A4A48
:1019B000C8F80410002612788DF80C208DF80D2040
:1019C0000596D8F840208DF8109042F001024FF0B3
:1019D000010903218DF80E108DF80F108DF80860A5
:1019E0008DF809608DF80B608DF80A904046C8F8B4
:1019F000402002A903F040FD2A463146404603F04C
:101A000027FD3A464946404603F022FD49464046F6
:101A100003F028FD114A019B11481370314609F06B
:101A200089F99BE70F48036C23F00103036400214D
:101A300003F018FD094B0A4800221A7009F07CF9DE
:101A4000204607B0BDE8F0834FF001098FE700BFE3
:101A500081070020D34D62108407002080070020FA
:101A60005C07002000600440014B1878704700BFFD
:101A7000800700200B4808B5036A1B0700D408BD87
:101A800008238362036C23F001030364002103F045
:101A9000E9FC054B054800221A70BDE8084009F032
:101AA0004DB900BF00600440800700205C070020A3
:101AB000014B1860704700BF8807002000B583B055
:101AC00002A9064B01F8010D0022186809F0BFFABF
:101AD000B0FA80F0400903B05DF804FB88070020ED
:101AE00000B583B002A9064B01F8010D0022186869
:101AF00009F0CEFAB0FA80F0400903B05DF804FBBB
:101B00008807002000B583B000230093054A064BE8
:101B10000121042005F0A6FB044B186003B05DF81A
:101B200004FB00BFD40700208C070020D80700204A
:101B300000B583B002A9084A01F8010D002310681E
:101B40001A4605F09FFBA0F10100B0FA80F04009B1
:101B500003B05DF804FB00BFD807002008B5064BB2
:101B600001460022186805F041FCA0F10100B0FA1E
:101B700080F0400908BD00BFD8070020124B10B408
:101B80001968D1E9004283B01078137A896801910D
:101B900010F0020FC3F306034FF000010CBF252025
:101BA00027208DF802308DF801104CB102AB03F8FC
:101BB000080D93E80300234603B05DF8044B184773
:101BC00003B05DF8044B70470C08002008B5084AC4
:101BD00008480021FEF796FB48B1074A0749002351
:101BE000C2E90033C2E90433C2E908330B6008BD1F
:101BF000CD1D00006C600020DC0700200C080020D8
:101C0000F0B589B0002839D0002937D00C460546F8
:101C100016460868A268496802AB07C302A8FEF727
:101C200061FF074618B10126304609B0F0BD08AB88
:101C3000014603F81D0D01AA0120019700F03CFEAA
:101C40009DF80330002BEED0012B0ED1019BBDF887
:101C50000A101A88914208D19B789DF80C2003F055
:101C60007F0302F07F029A42DDD0FEB9224B1A6850
:101C70004AB11A69002A3DD01A6A1AB100263046C4
:101C800009B0F0BD022212011C4F9D509E1801990F
:101C90003B689DF803203273C6E90141002BC2D195
:101CA000FA2117483E6009F00DFABCE7144809F024
:101CB000ECFA114B06460028D9D00027DA59AA427F
:101CC00003D01037302FF9D1D1E7DA190DF1140C08
:101CD00052689DF810E0106851689268ACE80700FF
:101CE0009DF81C2082EA0E025206EAD1044809F04F
:101CF0006FFAC4E70122C6E7DC0700200C080020C9
:101D00006C6000202DE9F0412D492E4E2E4832689E
:101D100001F1100401F120054FF0000C13E093686D
:101D200006339360D2E9017E3B79B7F80280BEF8B2
:101D30000070B84503F07F032AD19EF8027007F0C7
:101D40007F079F4224D1137B013BDBB21373002B2F
:101D5000E5D18A42C2E90033936020D0A24220D06C
:101D6000AA4222D04FF0030C01E09C4521D05A1C1E
:101D7000A0FB02735B0803EB4303D31A1A018F180D
:101D80008A58002AF1D03A46C7B14FF0010CC9E792
:101D9000BCF1000F10D1BDE8F041FFF7EFBE9C464B
:101DA000E5E74FF0010C6346E1E74FF0020C6346B4
:101DB000DDE73260BDE8F0813260ECE73760F9E7DB
:101DC000DC0700200C080020ABAAAAAA0C4B834217
:101DD00000D070470B4B1B68D3E90123508819884A
:101DE000884207D112799B7802F07F0203F07F03CB
:101DF0009A4201D0FFF7C2BE0020FFF783BF00BFA9
:101E00006C6000200C08002070B50C464978013940
:101E1000A4B005460A2969D8DFE801F00E47681A20
:101E20002768686868680600FEF73EFE04460028DA
:101E30005ED0022024B070BD007A214600F07F0001
:101E4000852301F00FF80028F3D0FF2024B070BDE7
:101E5000022AEED9017AA078134601F07F012246CA
:101E600000F0A6FE0028E4D0EFE7FEF71DFE0446D2
:101E70000028DED18022214604A826F03BFF284618
:101E800001A9FEF7E9FD287A40F2856300F07F00A2
:101E9000ADF8103000F05AFD8DF812002346019A7B
:101EA00004A80321FEF762FDCFE7FEF7FDFD06461D
:101EB0000028BED18022314604A826F01BFF287AD4
:101EC00004AA0DF10303214600F07F0001F054F84D
:101ED000284601A9FEF7C0FD334604A8019A9DF8E3
:101EE0000310FEF743FD0028AFD0A2E70020A1E7D2
:101EF0008022214604A826F0FDFE284601A9FEF70F
:101F0000ABFD40F68543ADF8103000F037FAC3E77B
:101F100000B5A5B0802204A8002126F0EBFE01A99F
:101F20001248FEF799FD124B104A1B78117A114A9C
:101F3000022B14BF0123812310788DF812300DF18C
:101F4000130240F2594301F07F01ADF8103000F068
:101F5000BBF904A8084B019A0A21FEF707FDB0FA65
:101F600080F0400925B05DF804FB00BF5008002058
:101F70004E0800204D080020811F0000FFF7C8BF59
:101F800038B50E4C2378022B02D00023237038BDC5
:101F90000B4B0C4A1D7810786A1C1A7000F082F9FD
:101FA0008542F2D20021084A0848FEF7ABF90A211F
:101FB0000648BDE8384009F085B800BF4E0800204B
:101FC0004D0800204C0800207D1F00001008002054
:101FD000F0B5A5B00D4617460646FEF765FD70B98B
:101FE0006B78032B48D0052B04460BD0012B07D16F
:101FF00004A88022214626F07DFE032F5FD0022018
:1020000025B0F0BD8022214604A826F073FE24A945
:10201000307AEB7801F88D3D00F07F0000F024FA73
:10202000317A9DF8030001F07F0100F091F9054637
:102030000028E4D0304601A9FEF70EFD327A9DF863
:1020400003308DF8135040F2596602F07F021946B2
:1020500005A88DF81230ADF8106000F059F900288D
:10206000CDD0291DC9B2234604A8019AFEF77EFCF3
:102070000028C4D1FF20C3E7214C2378002BBED118
:10208000AA78337A1F4912F0400FC3F306031E4AA1
:102090000FD00120107002220B70227031460C22EA
:1020A0001A4826F01CFEFFF733FF0028E2D120700B
:1020B000A5E7E878107001220B702270EEE7AB788C
:1020C000327A8DF80330194602F07F0240F259252A
:1020D00005A88DF81230ADF8105000F0B1F801A944
:1020E000054630468DF81350FEF7B6FC291DC9B2DF
:1020F000234604A8019AFEF739FCFF2080E700BFC1
:102100004E0800204C0800204D08002050080020F8
:1021100070B50C4649780139A4B00546042947D862
:10212000DFE801F01C26460B0300FEF7BDFC044669
:10213000002840D0022024B070BD022A297A12BFA4
:10214000A0780020A070134601F07F01224600F025
:102150002FFD0028EED0FF2024B070BD007A21466C
:1021600000F07F008E2300F07DFE0128E2D1F2E72F
:10217000FEF79AFC06460028DCD18022314604A8EE
:1021800026F0B8FD287A04AA0DF10303214600F0D9
:102190007F0000F0F1FE284601A9FEF75DFC334602
:1021A00004A8019A9DF80310FEF7E0FBFF20C2E7A8
:1021B000002024B070BD8022214604A826F09AFD9C
:1021C00001A92846FEF748FC287A40F28E6300F009
:1021D0007F00ADF8103000F0B9FB23468DF81200F7
:1021E000019A04A80321FEF7C1FBB4E770B50D4BBB
:1021F0000D4C0E4D93E8070084B001AB03C30126DC
:102200001A7000213C2220462E7026F073FD01A892
:1022100026F023FE01A90246204626F060FD04B008
:1022200070BD00BF309102005C0800201500002046
:102230001AB9024BD86283F8301070475C0800204E
:10224000F0B5164B05460E4617460FCB85B06C46CB
:1022500007C42380D5B1E7B9114C94F83830013365
:102260009E4208DC3EB1012E06D0646B312101FB99
:1022700006445B3C00E06C46204626F0EEFD2E4610
:10228000C5B2214630462A4626F029FD284605B02B
:10229000F0BD0025284605B0F0BD00BF3C9102000E
:1022A0005C08002008B10020704708B508F0AAFDBE
:1022B000022805D0034B93F838000130C0B208BDA6
:1022C000012008BD5C08002038B1104B063103EB3B
:1022D000C1010B7A0133984206DD012313700021FE
:1022E00001239170D370704701281070F7D010B49B
:1022F00031236FF06104496813FB00400B18095C3F
:1023000091705B78D3705DF8044B70475C080020D7
:1023100092B9012910B50D4B0C460FD05B6B3121E2
:102320006FF0610211FB04241C44E11CA2785200EE
:1023300026F0D5FC012010BD0020704793F8302016
:10234000D96A520026F0CBFC204610BD5C08002064
:1023500059B90128084B0AD05B6B312202FB0030CF
:1023600010F8600C4000C0B270470020704793F82E
:1023700030004000C0B270475C080020014B187864
:10238000704700BF15000020F8B5334D2523AA7013
:102390006B70002A50D104780F7890F801C014B9FE
:1023A000BCF1010F31D02D4B93F838605B6B002EE0
:1023B00042D00022114604E0D1B28E4203F1310333
:1023C0003AD91878A04202F10102F5D15878604557
:1023D000F2D198780028EFD093F803E0BE4504D0FE
:1023E0000128E9D95879B842E6D10231CCB2FF2CA4
:1023F00022D01B4B00211A1F204600F05DFAD8B9ED
:10240000184B2C701C701448F8BD144A92F83030E8
:10241000D16A8BB103F10042013A11F81220BA429D
:102420000CD0013BDBB201EB430303E013F8022DB8
:10243000BA4203D08B42F9D10020F8BD084B0021ED
:102440001A1F012000F038FA0028F5D1054A024889
:10245000012313702B70F8BD980800205C08002041
:10246000A0080020150000200B783BB1054A02EBC4
:10247000C00090F838200132934201DD01230B7037
:10248000704700BF5C0800202DE9F04F8DB0013A85
:1024900014019A4604921346C1EB01120991059466
:1024A0001946E31A5400984D9AF804600A94CAB287
:1024B00004EB4303C2EB021218335200EB18291944
:1024C000002E039301EB0203079314BF334601234D
:1024D0000693002302960B920890A4460193DDE92F
:1024E0000423039C9F1A7F0005232188FF290ED017
:1024F0002279012A0BD0029A1AB99AF80C20002AE4
:1025000053D0DAF800200198125C8A424DD05E1E4A
:10251000063C3346002EE8D1019B069A0133019315
:10252000DBB29A42DBD8089B852B32D0DDE904234D
:102530009A1A099B9AF80C000690C3EB03110A9BA8
:102540004FEA42080B9A2B4400281A44134614BF42
:10255000034601234FEA41090492B3460193D6464C
:10256000039A4FEA4B0704234FF0FF0C1088FF2813
:10257000194602D01479012C0ED0013B591CA2F14E
:102580000602F3D10BF1010B019A5FFA8BF39A4229
:10259000E6D80DB0BDE8F08F029C002C44D1069C1B
:1025A000002C41D1A2F800C0E7E75FFA83F84FF0B2
:1025B000FF02B8F1050F228000F09480E0885E1ED3
:1025C000FF283246194600F08F80C8F104085FFAF0
:1025D00088F804F10C0E002003F1010904E03EF834
:1025E00006BBBBF1FF0F79D001EB410107EB4101C5
:1025F000614402EB4202294407EB42026244D1F8F3
:1026000000B045F802B02A4489889180804503EBE8
:10261000000209EB000100F10100E0D11822079B44
:102620004FF0FF01995273E7DEF80860F45D8442D1
:102630003E4401D0002CA0D103EB4304640004EB22
:1026400008004844284476788078B04295D10698AE
:10265000A2F800C0002890D0042BDEB239D0B2F826
:1026600006A0581CBAF1FF0F059033D0C6F103063F
:10267000F4B29E1CCDE90862079402F10C0A0A9399
:102680000024059B079A05975646089F04E036F8F4
:1026900006ABBAF1FF0F2CD000EB400008EB400076
:1026A000484401EB4101284408EB41014944D0F87A
:1026B00000A045F801A0294480888880A24203EB4D
:1026C000040107EB040004F10104E0D1DDE9092372
:1026D000059F1824049921F804C04EE702EB42023A
:1026E00052009CE75E1E99E703EB43035A00063A4B
:1026F00095E701EB41014C000499059F21F804C0C6
:10270000DDE9092339E700BFC0080020F0B4033138
:102710000024032A016004718460047323D9033AFE
:10272000D6B206F1FF3C224607E0541CE5B2AE42A9
:10273000057101F10101224613D98E2BF5D1ACEBC5
:1027400002040F7804EBD474C4F34705541C002F23
:10275000EBD1057355B9E5B2AE4201F10101224654
:10276000EBD8F0BC70470460F0BC70470131816069
:10277000F7E700BF02880B889A4270B420D08C78AB
:1027800004F07F05072D08D9867806F07F06B5424C
:1027900021D802D2012070BC70479A4208D98578AE
:1027A0006D0605D0640616D0042270BC26F088BAE7
:1027B0009A42F9D26206F7D083785B06EAD0F3E753
:1027C00085788C78654015F07F06D9D12D06D7D451
:1027D000304670BC70474FF0FF30DCE7F0B50F7843
:1027E000012F1BD0DFF858E0DEF80020B2B1134B08
:1027F0001B780BB31478BC4212D05C1EE4B20134D7
:1028000004EB4404032303E0D65CBE420AD02B460B
:10281000A34202EB030C03F10305F5D10020F0BD48
:10282000944600239CF801200270DEF80020134437
:1028300001209B780B70F0BD1846F0BDDE0800202B
:10284000E0080020F0B5194F85B00024384604EBAD
:10285000440203880DF8023004AB134407EB420234
:1028600013F80F1C957890F804C013F80E2C4679D5
:10287000C5F3060E6EF306016CF34512ED09013443
:1028800065F3C71166F30302052C03F80F1C03F868
:102890000E2C00F10600DAD1054B064918686A468D
:1028A0000F2307F03DFD05B0F0BD00BFC0080020BC
:1028B000A860002001100500F0B583B001298DF853
:1028C00006108DF807002BD86AB363B3C7B227B3DD
:1028D00008461E461546FFF7E5FC87421DD89DF8C1
:1028E000061019B39DF80730174A013B0B44C3EBA0
:1028F000031302EB430305222B6032702968002288
:102900000B88FF2BD0B201F1060102F1010216D0B3
:10291000052AF5D1002003B0F0BD072003B0F0BDBB
:10292000062003B0F0BD032003B0F0BD0DF1070198
:102930000DF10600FFF752FF9DF80610D2E7307048
:102940000028E7D10220E9E7C0080020FFF7AABC71
:102950002DE9F047148884B0E82C8DF807008DF835
:10296000061003D9002004B0BDE8F0871D461446C8
:1029700008F048FA022800F002819DF80630002B8A
:102980004FD09DF80720A3782088012A03F07F010B
:102990004FEAD31359D09DF80A20ADF8080061F32F
:1029A000060263F3C7128DF80A208DF80C5008F068
:1029B000FFF9FEF7DFFA9DF807309DF806C07B4F60
:1029C0008DF80D00013B0CEB0302C2EB021252002A
:1029D000B818BA5AFF2A00F0DC80062502AE19E0CA
:1029E0009DF806C09DF807300FFA8CF2013BC2EB50
:1029F000021EC3EB03144FEA4E0E640004EB0E01FB
:102A000029441E2D07EB010005F1060543D0795A34
:102A1000FF2940D03146FFF7ADFE0028E0D101206C
:102A2000A1E70DF107010DF10600FFF7D7FE9DF8B4
:102A30000720A37820889DF80640012A03F07F0133
:102A40004FEAD313A7D1002CA5D09DF80A20ADF8EA
:102A5000080061F3060263F3C7128DF80A208DF8AF
:102A60000C5008F0A5F9FEF785FA9DF806C09DF810
:102A700007308DF80D000FFA8CF2013BC2EB021407
:102A8000C3EB03114FEA440E4FF000084C00474FD0
:102A900040F2FA5102E018214FF005083C4474441A
:102AA000615AFF297FF45EAFA8F1020802AE1DE073
:102AB0009DF807309DF806C0D9F80010013BC3EB24
:102AC00003156D00CCEB0C1005EB420202EB40024B
:102AD000B950B9180FFA8CF2B9F804008880C2EB2B
:102AE000021E4FEA4E0EB8F1010837D45FFA88F49F
:102AF00004EB4404C2EB021E64004FEA4E0EC3EB2B
:102B0000031504EB0E006D002844314637F800A091
:102B1000BAF1FF0F3844E146E5D0FFF72BFEC9EBD1
:102B2000091908F101032C44DBB204EB4904002825
:102B300003EB430207EB0409BADC9DF806C09DF8DD
:102B400007300FFA8CF203F1FF33C2EB021EC3EB26
:102B500003154FEA4E0E4FEA4505C4D008F10108AF
:102B60005FFA88F8754408EB480805EB480807EB5E
:102B700008003146062226F0B2F80120F3E69DF85F
:102B80000730012B7FF4EEAE2388E82B7FF6F5AEFD
:102B9000E8E60FFA8CF2C2EB021EC3EB03144FEA15
:102BA0004E0E640018214FF0050877E7C00800209A
:102BB0002DE9F04F87B001298DF806108DF8070038
:102BC00003D9002007B0BDE8F08F0D469DF807102F
:102BD000012901D1002DF4D128461E461446FFF7E5
:102BE00061FB9DF80750002D39D08542E9D89DF84A
:102BF0000630002B00F0AB80032E04D0042E55D1FC
:102C0000E378002B52D19DF807309DF80670574DA0
:102C1000013BC7EB0711DAB24900C3EB0313C2EB68
:102C2000021201F118095E0005EB42030B44B144A6
:102C30000F460093A9444FF0060805212378852B01
:102C400043D199F80430012B3FD101F1FF3A5146AD
:102C5000A9F1060908F1FF380029EFD120E032463A
:102C600002A88E232146FFF751FD8DF80650002063
:102C7000FFF718FB064658B101252A46013502AB7D
:102C80009DF806102078EDB2FFF7FEFBAE42F4D2BD
:102C90009DF806300133DBB28DF80630002BE6D00C
:102CA000FFF7D0FD012007B0BDE8F08F324602A843
:102CB00021468E23FFF72AFD02AB20789DF80720DE
:102CC0009DF80610FFF7E0FBEAE75FFA81FE4FF0A0
:102CD000FF03BEF1050FA9F800303FD0B9F8060098
:102CE00001F1FF3AFF2853460A463AD0CEF1040ECE
:102CF0005FFA8EFE09F10C0C002004E03CF806BBE4
:102D0000BBF1FF0F1FD002EB420206EB42023A4436
:102D100003EB43032A4406EB43033B44D2F800B0E1
:102D200045F803B02B4492889A80704500EB01036C
:102D300008EB000200F10100E0D11823009A4FF0E7
:102D4000FF01D15283E703EB43035B00F6E70DF18C
:102D500007010DF10600FFF741FD4DE701F1FF3AD4
:102D6000EBE701EB41035B00063BE7E7C00800200F
:102D7000F0B58BB00446FDF79BFC374D002328606F
:102D80000193002C43D00F22002102A825F0B2FFAE
:102D9000FF2402AA0F23314928688DF808408DF8D6
:102DA0000B408DF80E408DF811408DF8144007F05F
:102DB000B7FA28682A4F294906AD2A460F2307F09B
:102DC000FBFA0020394600EB40030AAAD418EA5C5B
:102DD00014F80F6C0A8007EB4303103C9A78A47830
:102DE000C6F3060C6CF30602F609013066F3C7124F
:102DF0000528C4F34016C4F303049A7001F10601D8
:102E000001F8026C01F8014CDDD10BB0F0BD01AB53
:102E10006A46124907F01EFB0028B4D1019B0F2B14
:102E2000B1D10E49286802AA07F0C6FA02AB0DF12B
:102E30001701FF201A780AB91870012403338B4256
:102E4000F8D12868002CB5D002AA0F23034907F057
:102E500067FA2868AEE700BFA860002001100500EF
:102E6000C0080020012801D9002070472DE9F04357
:102E70008C78012C87B004D02CB9002007B0BDE8B5
:102E8000F0830028F9D10E461F4615460446FFF789
:102E900009FAB3788342F0D83B462A46314602A865
:102EA000FFF734FCB2789DF80CC09DF81490012A0D
:102EB0000CEB090323D005229342DEDC002BDCD08F
:102EC000BCF1000F55D00027B846012504E00546A7
:102ED0000137FFB2BC4517D90298C05DADF80400B8
:102EE000002301AA21468DF806800028EFD0B07893
:102EF000FFF72EFD0028C1D09DF80CC0E8E7002C9C
:102F000014BF00220522D7E79DF81490B9F1000FF5
:102F10002BD0002704E045460137FFB2B94524D93C
:102F2000049A9DF8060039B202EB410C12F81180A8
:102F30009CF801E0ADF80480F446CEF3060E6EF383
:102F400006004FEADC1C6CF3C710012301AA2146DE
:102F50008DF80600B8F1000FDDD0B078FFF7F8FC6F
:102F600000288BD09DF81490D6E7FFF76BFC28461D
:102F700084E70125CAE700BF2DE9F04F83B08D78C3
:102F80000F4616461C468046FFF78CF9854201D84D
:102F9000BB78EBB901238DF80680BB708DF8073044
:102FA000B8F1000F26D03A783270BB78B3700023A6
:102FB000F37033713B78852B00F0B2808E2B40F09C
:102FC000B380032373700521217003B0BDE8F08F37
:102FD0008DF806808DF80730B8F1000F0AD0012B6C
:102FE0003A78E1D03270BA78B27005210022F170DF
:102FF000327111E00DF107010DF10600FFF7EEFB54
:103000003B783370BB78B3700023052233719DF891
:1030100006809DF80730F27003F1FF3E08EB0E0AC0
:10302000CAEB0A1A4FEA4A0ADFF8049139F80A0093
:10303000FF2809EB0A0275D009F106034FF01E0CB8
:103040001CFB083CCEEB0E130CEB430CACEB020C60
:1030500002F1180B1346002102E01888FF2809D05E
:103060001D79012D03D0751801316871C9B29B45D6
:103070006344F2D13B78852B4DD08E2B48D103236E
:10308000737039F80A50FF2D42D0284BC8EB081C4A
:10309000CEEB0E1E03EB4C0C4FEA4E0E1346F444DF
:1030A000C8EB08180022ACEB030C4FEA480817469F
:1030B00002E01D88FF2D21D018790128634419D121
:1030C00002EB420006EB070B01F1060A0EEB400093
:1030D00040440BF80A5048447D1C807856FA85F528
:1030E00000F0800BC0F306004BEA0000023705F841
:1030F0000A00FFB2042A02F10102DAD147B10E44FC
:1031000006310F4400237371277003B0BDE8F08FC0
:103110000531C9B258E70531C9B20323737053E7CB
:103120000521FAE70021A5E705214DE7C6080020A3
:10313000C008002030B40B4D0B4C0C4A0023052175
:103140002B6021600188FF2908D00133052B42F84C
:10315000040B00F10600F5D130BC7047236030BC91
:10316000704700BFBC080020B8080020A408002059
:1031700070B40B4E0B4A336811680B4D5C1DB3FBEA
:10318000F1F201FB1232013355F8220020B99C42C2
:10319000F5D1346070BC7047336070BC704700BFBD
:1031A000E4080020B8080020A4080020084B186894
:1031B00068B1084B03EB800101E08B4207D053F864
:1031C000042B002AF9D18B4200F1FF30F7D1704770
:1031D000B8080020A40800202DE9F04F0B78D0F8A3
:1031E000008083B0CDE90010002B4CD0002416469F
:1031F000DFF8F890A3464FF0010A1AE096455ED832
:103200009CF805B025F076FDB378D9F8002086F853
:1032100005B00AFA05F565F306033780B370009B25
:1032200001341B78E4B20132A342C9F80020BB4646
:1032300029D904EB440308EB430C38F813709CF8CD
:10324000025005F07F05013D0622214630460AFA6C
:1032500005F35FFA85FE002CD0D05F451CD1BEF18E
:10326000060F34D8B178D9F80020C1F306010B431A
:1032700063F07F03B370501E1A4B002143F82010F7
:1032800043F82210CBE7019A00231360009A1846F6
:10329000137003B0BDE8F08F019B009AC3F800C023
:1032A0001378BEF1060FA3EB0403137098BF01203F
:1032B000EFD90D4B00201C6003B0BDE8F08FB37850
:1032C000204664F3C713B37003B0BDE8F08F019BD1
:1032D000009AC3F800C013781B1B1370024B002028
:1032E0001C60E9E7A4080020E4080020BC080020D6
:1032F00070B54C78012CA4B005460BD0022C06D139
:10330000FDF7D2FB0446B8B1022024B070BD002006
:1033100024B070BD8878A0F16403DBB29A2BF3D996
:10332000297A01F07F0102F065FE0128064629D9BD
:10333000022832D0FF20EBE78022214604A825F0A6
:10334000D9FC01A92846FDF787FB4FF44872019B81
:10335000ADF81020987802F0A9FA019B8DF81200C0
:10336000987802F0ADFA019B8DF81300987802F07E
:10337000B1FA23468DF81400019A04A80521FDF73F
:10338000F5FAD7E7284602F089FF224601460548AC
:10339000FEF736FC002EB7D0CCE7284602F06AFFD5
:1033A000C8E700BF3D62000070B54C78022CA4B0A5
:1033B00002D0002024B070BD0546FDF775FB06461F
:1033C00010B1204624B070BD8022314604A825F0FB
:1033D00091FC01A92846FDF73FFB287A4FF4607362
:1033E00000F07F00ADF8103002F004FA33468DF89B
:1033F0001200019A04A80321FDF7B8FAFF20D9E7CB
:1034000030B589B0084C8DF81720002501220293B1
:103410002488ADF81C40CDE900250DF1170307AA5B
:1034200000F004F809B030BD4C9102002DE9F047DE
:1034300082B007460C989DF828509DF82C8089464C
:1034400016469A46FDF740F9A0B3337803707378B7
:1034500043700446B5B94A46384621460225FEF770
:1034600093FFE8B1154B0093424603462946204698
:10347000FDF7FCFC012819D0FDF77EF9012002B010
:10348000BDE8F0872A465146023025F028FC023577
:103490004A4638462146EDB2FEF776FF0028E1D1D4
:1034A000FDF76AF9022002B0BDE8F087002002B003
:1034B000BDE8F087012002B0BDE8F08759070000A1
:1034C00070B586B00024012306460D46ADF81440C1
:1034D0008DF816408DF8173007F08CFC20B90DB12F
:1034E00005A8A84706B070BD084B029506AA1B8820
:1034F00022F8083D3046CDE9004423462146FFF737
:1035000095FF0028EBD106B070BD00BF50910200BE
:1035100030B5802283B00446002125F0EBFB40F259
:1035200062332380684602F0A5FC9DF801309DF8C7
:103530000020A27003F0F002C3F3030313439DF8CD
:1035400002509DF803009DF804109DF80520E370DB
:103550009DF8063025716071A171E271237203B08C
:1035600030BD00BFF0B5802285B00446002125F0B3
:10357000C1FB40F26263238001A802F0A1FC9DF828
:1035800005309DF80420A27003F0F002C3F303039A
:1035900013439DF806709DF807609DF808509DF84C
:1035A0000900E3709DF80A109DF80B209DF80C307F
:1035B00027716671A571E07121726272A37205B004
:1035C000F0BD00BF70B54B78013BA8B00446062B98
:1035D00055D8DFE803F00C3F54192A540400FDF7D6
:1035E00063FA064600284CD0022028B070BD8878C7
:1035F00002F0CEFC0128054640F29D80022800F032
:10360000A680FF2028B070BD881C02F0F5FC0128C0
:103610000546F6D8204602F01BFE012201464F481F
:10362000FEF7EEFA002DDFD0EBE7FDF73DFA054699
:103630000028D9D101A92046FDF70EFA08A8FFF706
:1036400091FF2B4608A8019A0B21FDF78FF900285E
:10365000CAD1D6E7FDF728FA05460028C4D101A94A
:103660002046FDF7F9F908A8FFF752FF2B4608A8F6
:10367000019A0921FDF77AF90028B5D1C1E70020A8
:10368000B3E708AD80223146284625F033FB2046BB
:1036900001A9FDF7E1F940F662030E22314602A8C6
:1036A000ADF8203025F026FB02A802F029FC9DF899
:1036B0000A409DF809308DF8244001228DF822201F
:1036C0008DF82330002C46D00DF10B0318190DF1A5
:1036D000250213F8011B02F8011B8342F9D10DF1F9
:1036E00025031C449DF815109DF81320C1F34003D9
:1036F00001F001009B0043EAC003C1F3C000034393
:10370000C1F38001E01C401B43EA410302F00F01BA
:10371000C2F3031242EA0112C1B228469DF81450C6
:10372000A37022700023019A6570FDF71FF900282D
:103730007FF45AAF65E7204602F08AFD0122014678
:103740000748FEF75DFA002D3FF44EAF59E72046DB
:1037500002F0A2FD55E70DF12504C3E7893700000B
:103760006537000010B5A4B06C4684E8030004A8D7
:10377000FFF7CEFE224604A8024B0921FDF79CF874
:1037800024B010BD051D000010B5A4B06C4684E83F
:10379000030004A8FFF7E6FE224604A8024B0B2113
:1037A000FDF78AF824B010BD051D00002DE9F04793
:1037B0000C4649780139A6B00646154609292BD88A
:1037C000DFE801F0422AAA2A2ACF2A052A2E0DF183
:1037D0000A01204600F0A0FD0546E8B980222946EE
:1037E00006A825F087FA304603A9FDF735F92146EA
:1037F000092206A825F073FA637A8DF822309DF825
:103800000A40039A8DF821402B4606A809250B2172
:103810008DF81950FDF7AAF8002026B0BDE8F08712
:1038200026A9002441F88C4DFDF716F9574D039A4F
:103830008DF81C402346052106A80695FDF796F84D
:10384000FF2026B0BDE8F08706AF80220021384671
:1038500025F050FA304603A9FDF7FEF826A900240A
:1038600021F88E4D02A8ADF8084003F021F8BDF80C
:1038700008308DF81B3040F27A221B0A2046ADF842
:1038800018208DF81A3003F00BF8030A20468DF843
:103890001C3003F005F8FF238DF82030ADF81E40F2
:1038A0008DF81D0001F096FF01388DF8210000F021
:1038B00029FD030A8DF823008DF8223001244FF0F2
:1038C00002084FF00A090CE002F0EAFF030ABB55B8
:1038D000204602F0E5FF26AB1D44013405F8750CC7
:1038E000E4B201F077FF18FB0496844207EB060A66
:1038F00014FB08F52046E7D302F0D8FF61000B3136
:103900008AF80000C9B238460023039AFDF72EF862
:10391000FF2026B0BDE8F0878022002106A825F010
:10392000E9F903A93046FDF797F821462A463046C3
:103930000DF10A0300F062FB40F27A419DF80A4063
:10394000ADF8181006A8124B039A8DF81A400321FF
:10395000FDF70CF800283FF473AF022000F038FBAD
:103960006EE7214641F60F5007F056FEA278E17847
:103970001302063DEDB203F4FE4319440095231DE6
:1039800000F036FCFF2026B0BDE8F0877A0B03007C
:10399000D13F000070B50D4616460446FDF784F889
:1039A00030B9324629462046BDE87040FFF7FEBEDA
:1039B000022070BD2DE9F041A4B0064614468846A9
:1039C0008022002104A81D4625F094F924A9002393
:1039D00041F8903D3046FDF73FF8270A40F27A76ED
:1039E00004A82B46009A8DF8128005218DF814400A
:1039F0008DF81370ADF81060FCF75EFF30B1054B29
:103A000024A81B6840F88C3DA847012024B0BDE8DD
:103A1000F08100BF54910200F0B5A5B00C460646F7
:103A2000802204A8002125F065F924A9002541F889
:103A30008C5D3046FDF710F8270A2B4604A840F2AB
:103A40007A560125019A8DF8144005218DF81370DE
:103A5000ADF810608DF81250FCF72EFF003018BF43
:103A6000012025B0F0BD00BFF0B5A5B00D4607465A
:103A7000164604A88022002125F03CF924A9002440
:103A800041F88C4D3846FCF7E7FF24A9684621F839
:103A90008E4DADF8004002F00BFF204602F000FF13
:103AA000BDF800308DF81960190A070A40F67A123D
:103AB0002E0A8DF813308DF81210ADF810208DF805
:103AC00015008DF814708DF817508DF816608DF86C
:103AD000184002F0EBFE23468DF81A00019A04A864
:103AE0000B21FCF7E9FE001B18BF012025B0F0BD3B
:103AF0004FF0005240F2012312889A4210B404465B
:103B00000AD0084B187822804FF000534FF6FF710F
:103B100019805DF8044B7047024901230B70184669
:103B2000F1E700BFE80800204FF000534CF23C32B0
:103B30005A80704710B5084CA368607B0BB198475A
:103B4000607B38B994F83330812B03D0BDE8104046
:103B500009F052BE10BD00BFA4090020094A136835
:103B600023F4E06343F480631360BFF34F8F06498F
:103B7000064BCA6802F4E0621343CB60BFF34F8F79
:103B800000BFFDE700500E4000ED00E00400FA0524
:103B9000F0B5604C604E2060604D61486160A2608D
:103BA00001210022226232602A6091B084F8321032
:103BB000016094F83320002B3BD062F07F0284F840
:103BC000332009F0F7FD10B1002384F8323006A845
:103BD00009F0C4FD9DF81830012B1CBF002384F8A8
:103BE0003230089B002510AE13F4803304A9284618
:103BF00008BF84F83230CDE9045509F01FFE46F8BD
:103C0000345DFCF755FD334602AA4649074606F0E7
:103C100021FC002847D10DF10600FFF769FF68B9C4
:103C2000414A42480021FCF76DFB94F8320011B084
:103C3000F0BD02F07F0284F83320C2E70CAA3846B8
:103C4000039B384906F0B8FB039A0C2A45D0BDF80F
:103C500034C09DF836609DF837500E999DF83000BD
:103C600009AF9DF828209DF82C30ADF826C066F3EA
:103C700006026FF3060381288DF828208DF8245062
:103C80008DF825108DF82C30BDF8062019D00023B2
:103C900040F201218A4214BF0521FF2138461A460D
:103CA000FFF788FEBCE70120CDE90C550CAA8DF882
:103CB000310010231B493846CDE90E5506F030FB84
:103CC000A9E740F2012338469A4214BF0122FF229D
:103CD000BDF83210FFF7C8FEA2E709AF0CA93846BD
:103CE00024F0FDFF9DF82400BDF826309DF828C083
:103CF0009DF829609DF82A500B998DF83000ADF899
:103D00003230ADF834C08DF836608DF837500E91F2
:103D1000A7E700BFA4090020D8090020DC09002083
:103D20001800002005100500C93F000064090020AC
:103D30002DE9F0411B4DD5F800C0BCF1730F82B0E6
:103D400004460E460AD8184FDFF860803968131809
:103D5000DB0A01338B42C8F8003010D112F00303A4
:103D600018BFC3F1040304F5683018BFD2183146F8
:103D700009F0ECFD02B0BDE8F04104F075BD0CF1B6
:103D80007400C0024FF40061019209F0FDFDD8F803
:103D900000303B60019A0028E0D12B6801332B6092
:103DA000DCE700BFD8090020DC0900201800002053
:103DB00038B5104D6B69044623B1184607F01FFA59
:103DC00000236B610022FD2C2A7411D3FE2C0BD82A
:103DD0002146094B0948FFF7EDFD00B938BD002029
:103DE000BDE83840FFF7A6BEBDE8384009F004BD85
:103DF0000222EDE7A4090020353B0000CA0900209B
:103E0000134838B50368134DDB071BD4002108465F
:103E100009F074FD80B1104A104B002401212046A6
:103E200011601C6009F022FD04F01EFD297808488D
:103E300006F0CDFE204638BD2978054806F0C7FEBD
:103E4000012038BD012300212B7006F0C0FEDDE704
:103E500000200540E009002018000020DC090020B7
:103E600038B50D4C656900232374237725B12846A6
:103E7000BDE8384007F0ACB90848094A6061012143
:103E8000FCF740FA4FF4FA61606907F01BF901286A
:103E900000D038BD656138BDA4090020EC080020C1
:103EA000ED3F000070B5454C237B012B75D020D32E
:103EB000022B1DD1013806281AD8DFE800F04B1973
:103EC00019412A043900FFF79BFF054600284FD00F
:103ED00094F83330812B5CD094F82430002B4ED0F2
:103EE000FE20FFF765FF002384F8243063732373FB
:103EF00070BD012847D12073FFF716FE6069304B73
:103F0000A36118B107F07BF90023636100232374D8
:103F100070BD237F0133DBB2052B98BF2377E7D930
:103F2000237C0133DBB20022092B2374227709D9C9
:103F30000120FFF73DFF012200236273237370BD50
:103F4000FFF78EFF218B1F48013189B2BDE8704019
:103F5000FFF762BD606918B107F051F90023636192
:103F6000A3680025257433B301209847257370BDDD
:103F70000420FFF71DFF01232573637370BDFF202D
:103F8000FFF716FFAFE7A368ABB10120BDE87040B3
:103F90001847FD20FFF70CFFA5E70128ACD0022849
:103FA00008BF2073CCD0A268002121731AB1184633
:103FB000BDE870401047FFF7D1FD00BFA409002005
:103FC00000000F1DCA0900200620FFF76BBF00BFCD
:103FD000054B1B78FF2B00D0704710B10320FFF773
:103FE00061BF0220FFF75EBF160000200520FFF72B
:103FF00059BF00BF0720FFF755BF00BF2DE9F04FA5
:104000000A2A87B081460C461F4622D94B7A8E7AFF
:1040100091F808800B2A154606EB03261DD0604A4E
:10402000C97A92F83330C9074CBF43F0010323F03B
:10403000010382F8333002F039FC0C2D0FD0237BC2
:1040400083420CD0574A042313703B7007B0BDE87D
:10405000F08F4FF0FF364FF0000802F027FC257A72
:1040600001F0B8FB854206D34E4A032313703B7020
:1040700007B0BDE8F08F06A9002321F8123D01A882
:10408000ADF8043002F014FC06F074FE83699B89DD
:104090004FF6FC75063B1D40731C0AD0B54200D399
:1040A00036B9404A022313703B7007B0BDE8F08F69
:1040B0003546A378E67894F804B094F805A0404615
:1040C00046EA032602F0ECFBBDF80430B34204D00C
:1040D000344A002313703B70B8E74AEA0B2A824542
:1040E000F6D12F4E96F83230002BBDD0A379D6F8FA
:1040F00000A0E47944EA0324BAF1000F0AD0404654
:1041000002F0CEFB2146D04720B9264A0123137086
:104110003B709BE74FF0000A234BB36149460C22EA
:10412000224886F81CA086F80CA086F810A0A6F8F5
:104130000EA024F0D4FD99F8043096F833C099F815
:10414000001099F80120B9F802008DF808C0C3F3F7
:1041500006034FF001098DF80E308DF80F10049210
:10416000CDF814A0ADF80A408DF80990ADF80C0018
:10417000FCF79EFA102302AA0D4906F0D1F8484632
:10418000FFF790FED0450B49064AF4814FF0FF033C
:1041900018BFC84686F81D800D7013703B7055E738
:1041A000A40900201600002000000F1DCA090020ED
:1041B00005100500A009002010B50A4C206A18B1AE
:1041C000BDE8104007F004B8074B084A23620146D7
:1041D0001846FCF797F8206A4FF4FA61BDE81040E2
:1041E00006F070BFA409002028090020F53F000058
:1041F0002DE9F0473F4C9DF82070257B022D01D022
:10420000BDE8F08760BBB4F81880207408F10100A5
:104210008142F5D19946384B16460D4693F800A0D9
:10422000B8F1000F27D0574525D01106E8D5BEB20A
:1042300032464946608B258307F0EEF9637F608341
:10424000002B3CD063688BB1E38983424CD00720BC
:10425000FFF728FE636839464846BDE8F04718472F
:10426000237F052BCCD9237C0A2BC9D90720BDE895
:10427000F047FFF717BE1FFA87F842464946608BA2
:10428000258307F0C9F9637F608353B16368002B0E
:10429000ECD03306D8D4194B00221A70FFF78CFFEC
:1042A000D8E7681E42460AFB00F04946FFF740FD8A
:1042B00032060AD40420BDE8F047FFF7F3BD3246CA
:1042C00049460AFB08F0FFF733FD628BE3899A4207
:1042D000CCD164210A4806F0F5FE012890D10620D1
:1042E000BDE8F047FFF7DEBD044B01221A70FFF76F
:1042F00063FFAFE7A4090020A0090020AC60002004
:104300006409002008B506F035FD83699B894FF6E6
:10431000FC70063B184008BD2DE9F04F044689B0FB
:10432000007A234E884602F0BBFA08A9002321F840
:10433000123D814603A8ADF80C3002F0B9FA02F044
:10434000B5FAA278E578F389A179019094F804A0F0
:104350006779009194F807B045EA0225DBB1BDF812
:104360000C30AB4205D0002088F8000009B0BDE851
:10437000F08F47EA0A27B945F5D1009BF2894BEA4D
:1043800003239A42EFD1637A019A9342EBD109F069
:1043900033FA0120EAE7FCF78BF910230DEB030257
:1043A000044906F009F8BDF81230F381D7E700BFE1
:1043B000A409002005100500114B1A78C2B1114B59
:1043C0001B78A3B1104902EB8202087802EB82024B
:1043D000910090B100EB800000EB80008000FF2B8B
:1043E00014BF1A460022091A0123FDF79DBA1A4686
:1043F000114610460123FDF797BA4810EFE700BFBA
:10440000E2090020E1090020E30900208278A2F1FE
:104410006403DBB29A2B19D910B50D480D4982B14E
:104420000D4AFF2303700B701370FFF7C5FF0B4B92
:104430000B485024194601221C73FDF7E1FB0120B3
:1044400010BD054B02700A701A70EEE7002070472D
:10445000E2090020E1090020E3090020B06000200B
:10446000F54600002DE9F0414C78022CA4B00D4631
:10447000174606464BD0042C3FD0012C03D0002019
:1044800024B0BDE8F081DFF860820E2200214046B2
:1044900024F030FC32687368B168C8F80810032F44
:1044A000C8F80020C8F8043067D02CD9EB7803F0A6
:1044B0001F0303EB4302111DB94224DC002B5CD027
:1044C00000210435AB188E468C460F460E4604E09C
:1044D000002403359D4200F09F802A78502AF7D1AE
:1044E0006A78A878042A00F0BE80052A00F0B98016
:1044F000032AEDD107460126EBE7FCF7D5FA04467F
:1045000008B9022F41D8022024B0BDE8F081FCF7A1
:10451000CBFA0028F7D1FDF7A7FA002875D0022FB3
:1045200050D0F0D98822002102A824F0E3FB24A96E
:10453000002341F88C3D3046FCF78EFAAB78502BC7
:10454000664B00F094801B7840F28732ADF8102063
:104550002BB1634B1B78002B14BFFF2300230022D9
:1045600001218DF813108DF812308DF814208DF87C
:1045700015208DF8162007211DE02846FFF746FF7D
:104580000446012CBFD1FF207AE70146882202A809
:1045900024F0B0FB24A9304641F88C4DFCF75CFABE
:1045A000AB78502B55D0002B53D040F287538DF869
:1045B0001440049305210023019A04A8FCF7D6F9BE
:1045C000FF205DE78822002102A824F093FB24A9A4
:1045D000002341F88C3D3046FCF73EFA3F4B1978FA
:1045E00040F28733ADF8103029B13D4B19780029DE
:1045F00014BFFF2100218DF812100023019A03211E
:1046000004A8FCF7B3F9FF203AE7344B344A18709A
:10461000344B1070187082E7002E3FF474AFBCF179
:10462000000F3FF470AF2E4B2C4A83F800E08F420E
:1046300017702C4B46D200221A70FFF7BDFE502394
:1046400001222949294888F80C30FDF7D9FA0220BF
:1046500016E7274B049343F60103ADF81430062107
:10466000A9E7014635E786464FF0010C31E71C4AC1
:104670001B78117840F28732ADF8102003B300297F
:1046800014BFFF200020174A8DF8120015788DF80E
:1046900016300322502304244FF4AA608DF8191019
:1046A0008DF81C508DF813208DF815208DF81430DE
:1046B0008DF817308DF81840ADF81A000D217AE703
:1046C0001846E0E71970FFF777FE502301220649EC
:1046D000064888F80C30FDF793FA52E7E20900200B
:1046E000E1090020E3090020B0600020F546000049
:1046F0008705500030B5A5B015466C4684E8030028
:10470000802204A8002124F0F5FA2B7B502B274BA4
:1047100020D01B7840F28732ADF810209BB90022E0
:1047200001218DF813108DF812308DF814208DF8BA
:1047300015208DF816200721224604A81C4BFCF7F3
:10474000BBF825B030BD1B4B1B78002B14BFFF23DB
:104750000023E4E7174A1B78117840F28732ADF85E
:10476000102003B3002914BFFF200020124A8DF847
:10477000120015788DF81630032250238DF8191089
:1047800004204FF4AA61ADF81A108DF81C508DF872
:1047900013208DF815208DF814308DF817308DF812
:1047A00018000D21C8E71846E0E700BFE209002025
:1047B000051D0000E1090020E309002008B5FDF710
:1047C00053F928B90349044A044B08701070187053
:1047D00008BD00BFE2090020E1090020E309002034
:1047E00070B5A6B00D460646FCF75EF900286CD100
:1047F0006B78042B04463AD0062B36D18022214612
:1048000006A824F077FA304603A9FCF725F940F210
:1048100072710320022507AB0DF10A02ADF81810E2
:104820008DF8070002A90DF107008DF80A408DF8F8
:10483000085002F043F89DF80A509DF808309DF8A2
:104840000760039A05F01F0545EA4315EDB205F030
:104850001F01234606A806F0070404318DF81B50FB
:104860008DF81A40FCF782F8FF2026B070BD802238
:10487000214606A824F03EFA304603A9FCF7ECF8DE
:1048800026A940F2725321F88E4D02A8ADF80840D7
:10489000ADF8183002F00CF8BDF80810BDF80A5059
:1048A0008DF81B10090A23462E0A4FF480648DF8F8
:1048B0001A10039A8DF81F5006A808218DF81E6063
:1048C000ADF81C40FCF752F8CEE7022026B070BDD0
:1048D00070B50D46017A4B0684B01DD0044601F038
:1048E0007F010020FBF7BEFF217A064601F07F0121
:1048F0000120FBF7B7FFBEB160B1327903680292C5
:1049000032686478019200796A78297800902046AC
:10491000FBF754FE04B070BD42786978287804B083
:10492000BDE87040FCF76EBB304604B070BD00BF00
:1049300003680BB330B49478C4B11C1F04600878CA
:10494000043008705168897860250D2401F08000DA
:1049500003F8045C03F8034CC1F30601927803F8F2
:10496000022C014303F8011C30BC70475468A47842
:104970006406E2D130BC7047704700BF70B54B7819
:10498000013BA4B00C460546042B6BD8DFE803F0CE
:104990002F466A0B0300FCF787F80446002864D012
:1049A000022024B070BD494E3378022BF8D08B889A
:1049B00047495BBA9AB20B80002AF1D0454940883A
:1049C000454B0880454AA1784548E4781980002382
:1049D000194614700380434A434802243470FBF79D
:1049E00091FC2821404806F06DFBFF20D9E78B7829
:1049F000092BD5D8CB78002BD2D03C4A3C4801219A
:104A0000FBF780FC3A4806F0FAFBA378002B52D162
:104A1000384A1370384AFF201370C2E7FCF744F895
:104A200004460028BCD18022214604A824F062F963
:104A3000284601A9FCF710F82F4B2E4A1B78157851
:104A40008DF81230019A8DF81350234604A840F2D5
:104A500073340421ADF81040FBF788FF00289FD184
:104A6000FF209EE7002024B070BD8022214604A8CC
:104A700024F040F9284601A9FBF7EEFF184B164A2F
:104A80001988124B8DF81510090A16881D788DF8B3
:104A900014102346019A8DF8126040F2736404A842
:104AA00006218DF81350ADF81040FBF75FFF00288A
:104AB0007FF476AFD4E70F4BE2780D481A704FF4CD
:104AC0007A7106F0FFFAA378A4E700BF2E0A00204F
:104AD000240A00202C0A0020280A00202A0A00208C
:104AE000260A0020E94B0000E8090020FD4A0000EA
:104AF000300A00206C0A0020E4090020054A1378DF
:104B0000013BDBB2137003B17047034A03481370D3
:104B100006F075BB6C0A0020E4090020300A002072
:104B200070B5A6B018B92A4A1388013313802948F2
:104B300006F065FB284A138823B1013B9BB2138022
:104B4000002B3FD1224E254D3388002B37D12B70BF
:104B50008022002106A824F0CDF805A800F0BAF9BB
:104B60001F4B00241B88ADF800308DF802408DF8F3
:104B7000044006F01DF9FCF7FDF9328819498DF85B
:104B80000A40234609882E788DF80500140A8DF80E
:104B90001D208DF81C408DF81A1006A8252540F21E
:104BA000736402AA06218DF81B608DF80850CDF8B9
:104BB0000CD0ADF81840FBF77FFE26B070BD012386
:104BC0002B70C5E72821034806F07CFA26B070BD9B
:104BD000260A0020E8090020240A00202E0A0020CE
:104BE0002C0A0020280A002010B5BEB006F0CEF82E
:104BF0003EA90B230C4A01F8F83D0C4B12881C7897
:104C0000ADF808200A4B8DF80A400022019306F007
:104C10001EFA012801D03EB010BD00210220FFF78E
:104C20007FFF3EB010BD00BF280A00202A0A0020E6
:104C3000214B0000014B00221A7070476C0A0020C3
:104C40000C480D490D4AF8B500230D4F0D4E0E4D81
:104C50000E4C03800E483B8033702B8023700B700A
:104C6000137006F012FB00B9F8BD0948BDE8F84022
:104C700006F0C5BA240A00206C0A0020E4090020CE
:104C8000280A00202A0A00202C0A00202E0A0020D0
:104C9000300A002038B5074B074D084C1A602870C1
:104CA000216006F067F890F82430054A03F03F03CE
:104CB000137038BD740A0020780A0020700A0020A2
:104CC000820A0020F0B5A3B004460F46164602A89B
:104CD000802200211D4624F00DF8224602A84FF440
:104CE0001B74002305218DF80A708DF80B608DF878
:104CF0000C50ADF80840FBF739FE003018BF01201A
:104D000023B0F0BD2DE9F04305464878012887B06F
:104D10000C460ED0022808D1674B8A781B789A423D
:104D200067D0FF2007B0BDE8F083002007B0BDE8E2
:104D3000F083624F624EFBF7DDFEA3783A7803F012
:104D40003F039A4204F1040818BF00234146284655
:104D500018BF3370FFF7BCFD00BB30700020FBF7BD
:104D6000C9FE3378032BDCD02A78A3783978A8469B
:104D700012F00C0F03F03F0358F8060F27D09942AA
:104D8000039000F08E80042241464E483B7023F091
:104D9000A6FF4D4B2A781A70FF20C7E7A1783A7812
:104DA000D5F80600029001F03F039A422DD0AB7A6D
:104DB000E27843F0010361F34603C90961F3C713C5
:104DC000AB724146284600F0A9FC3070C6E7994214
:104DD000019023D101A804223A49DFF8EC9023F096
:104DE0006FFF002859D199F80030002B55D10220CF
:104DF0009CE7364B1B6813B10979E0789847FCF7BC
:104E000087F8FF2007B0BDE8F08302A804222D49EF
:104E100023F056FF0028A1D0A178C8E7DFF8A890BA
:104E200028483B704146042223F059FF3278A0788D
:104E3000002112F0FD0300F03F0789F8001011D1A6
:104E40001C462846FBF730FE00287FF46AAF284650
:104E500003A9FBF701FE2346327803983946FFF792
:104E600031FF5EE71A4B1B68002BE9D02779647984
:104E70008DF80E008DF80C708DF80D4005958DF8AD
:104E80000F208DF8101003A898479DF80F3033704D
:104E90009DF810409DF80E70D3E7A37803F03F0310
:104EA000BEE703A80422074923F00AFF00289ED08A
:104EB000A37803F03F0366E7820A0020790A002006
:104EC000810A00207C0A0020800A0020740A002049
:104ED000700A002030B40B4A0B4C117823780B4D2C
:104EE0006C2202700122427003F03F02013342EA59
:104EF000C11203F03F030021237029708270C1703A
:104F000030BC7047780A0020820A00206D0A002019
:104F100010B4094B094A1B781178094A03F03F0382
:104F20006C2443EAC113127804700121417083702C
:104F3000C2705DF8044B7047820A0020780A002096
:104F40006D0A0020014BC170197070476D0A002076
:104F5000C0787047F0B5054648780138ADB00C46CA
:104F6000102800F28F81DFE810F01B0042008D0155
:104F700070008D019F008D01FF0004018D0127014C
:104F80002F018D015A0162018D0111002846FBF7A6
:104F90008BFD0446002800F0778102202DB0F0BD83
:104FA0002CAB002603F89C6DC978A0780093131FE2
:104FB000DBB2221D00F090FC0128EED19DF81430E8
:104FC000002B00F0FE80802231460CA823F092FED8
:104FD000284606A9FBF740FD40F263310C910CA86E
:104FE0003346069A0421FBF7C1FCFF20D6E728468A
:104FF000FBF75AFD06460028CFD1802231460CA887
:1050000023F078FE06A928468DF81460FBF724FDEE
:105010002B7AA0788DF8320003F07F03009305AA65
:105020000DF133030DA940F26334ADF8304000F0C8
:10503000C1FC9DF81410069A04310CA83346C9B27D
:10504000FBF794FC0028A8D1BBE02846FBF72CFD19
:1050500004460028A1D1802221460CA823F04AFE54
:1050600006A92846FBF7F8FC287A40F2635300F0C3
:105070007F00ADF8303000F0D1FC0146FF290D462D
:10508000234628BFFF250C0A8DF834100CA8069A79
:105090008DF8325005218DF83340FBF767FC00286E
:1050A00014BF0220FF2079E72846FBF7FDFC0446E9
:1050B00000287FF472AF0CAE80222146304623F0E8
:1050C00019FE284605A9FBF7C7FC1F210F238DF801
:1050D0000C1006A8214610228DF8103023F00AFE8D
:1050E0007949254601273024E3082CAA1A4404F004
:1050F000070412F8980C07FA04F4044302F8984CD9
:1051000011F8014FAB4228BF5D1C002CECD140F2DE
:105110006370C123012203A9ADF830000DF1330003
:105120008DF8323023F0DBFDE123012204A90DF1DB
:1051300035008DF8343023F0D2FD06A92A460DF152
:1051400037008DF8365023F0CAFD2CAB5919793948
:10515000891BC9B223463046059AFBF707FC002895
:1051600014BF0220FF2019E7887800F06BFCFF20B5
:1051700014E72846FBF798FC044600287FF40DAF9F
:10518000802221460CA823F0B5FD06A92846FBF78E
:1051900063FC40F66323ADF8303000F041FC234659
:1051A0008DF83200069A0CA80321FBF7DFFB0028DC
:1051B00014BF0220FF20F1E6023A91B2A01C00F0D9
:1051C000ABFCFF202DB0F0BD2846FBF76DFC06467A
:1051D00000287FF4E2AE802231460CA823F08AFD3D
:1051E000284606A9FBF738FC2379E278A078ADF8C9
:1051F000146003F00103009342EA0020212305AA72
:105200000DF1320140F66354ADF8304000F00EFD70
:105210009DF81410069A02310CA833462AE08978CA
:10522000E01C01F00F0100F041FCFF20B6E628462B
:10523000FBF73AFC044600287FF4AFAE80222146FB
:105240000CA823F057FD284606A9FBF705FC2CA95E
:1052500041F2630301F89C4D0DF13300ADF830309D
:1052600000F00AFC9DF81410069A8DF832100CA874
:1052700003312346C9B2FBF779FB002814BF022093
:10528000FF208BE6002089E6802221460CA823F02F
:1052900031FD284606A9FBF7DFFB41F26323ADF899
:1052A000303000F065FD0146050A8DF833100CA87A
:1052B0002346069A8DF832500421FBF757FB00284D
:1052C00014BF0220FF2069E6589102004B78012BA1
:1052D00001D00020704710B5A4B00446FBF7E4FBF2
:1052E00010B1022024B010BD0146802204A823F092
:1052F00001FD01A92046FBF7AFFB214B40F25E22E6
:10530000ADF810201B6802228DF812201A798DF852
:1053100013205A798DF814201A68E2B11168D1B1BE
:10532000207A147900F07F02944214D3400612D000
:1053300002F18042013A01EB820031F822308DF80F
:1053400016301B0A8DF8153043888DF818301B0A6B
:105350008DF817300BE0DA888DF81620120A8DF8D8
:1053600015201B898DF818301B0A8DF8173004A8FA
:105370000023019A0921FBF7F9FAFF20B2E700BFE9
:10538000840A0020014B1860704700BF840A002087
:10539000054B4FF480214FF48062C3F880111960EF
:1053A000C3F880211A60704700E100E038B5044678
:1053B0000D4606F048FF034B43F82450BDE8384043
:1053C00006F045BF880A00200E4B70B5D3F828447C
:1053D000D3F81C1445F255520C401440C3F8244431
:1053E0007CB1094E012594FAA4F0B0FA80F005FAD8
:1053F00000F256F8203024EA020403B19847002C4A
:10540000F1D170BD00A00040880A00200E4B70B59D
:10541000D3F82844D3F81C144AF6AA220C401440AE
:10542000C3F824447CB1094E012594FAA4F0B0FAE3
:1054300080F005FA00F256F8203024EA020403B1A5
:105440009847002CF1D170BD00A00040880A0020D0
:1054500029B1012902D11430026070477047103021
:1054600002607047436B9B07FCD411B90223436071
:10547000704701234360704730B40C7814B98368D7
:10548000DB0729D44A788D78CB68002A14BF4FF403
:105490008052002235BB53BBCB780BB142F48072F3
:1054A0000B790BB142F040024B790BB142F0800214
:1054B000CB798D79097A1B0143EA85030B431343AA
:1054C00003603CB18368DA0704D4436B9B07FCD4C8
:1054D0000123436030BC7047436B9D07FCD402231B
:1054E0004360CFE742F40072002BD5D001E042F4D4
:1054F00000720361D0E700BF29B1012902D11C303D
:10550000026070477047183002607047C378012B03
:1055100000D070477320FCF7D1BA00BF7C20FCF7A5
:10552000CDBA00BF10B50C4B1B68B6B05C6803E089
:105530009DF80030802B08D000226946204601F0FB
:1055400055FF0128F4D036B010BD05F039FC69468E
:10555000FAF790FFF0E700BFD460002000B583B0F9
:1055600001A90748FBF778FA064B01981978FF2242
:10557000002301F03F01FFF7A5FB03B05DF804FB3A
:10558000FC0B0020080C0020094B834200D0704720
:1055900010B5084C237803B910BD0122064907480D
:1055A000FCF72EFB0028F7D00023237010BD00BFAE
:1055B000400B00207D0B0020C860002065370000F4
:1055C000C378012B00D0704710B58AB00AAC4423D1
:1055D0000021074804F8243D05F0F9FA054B1B6843
:1055E000214698684FF4FA7205F031FD0AB010BDFB
:1055F00000200540D460002038B502888378B2F5D9
:10560000B17F08D0B2F5907F05D003F07F03002270
:105610008370027138BD01210222DB09C170027161
:10562000F8D004460F4805F030FE28B10D4805F0CB
:10563000E6FD0020FFF792FFA2680B4B106851684F
:1056400092680A4D07C3A378064803F03F0363F04E
:105650007F02A2702B704FF4FA61BDE8384005F06C
:1056600031BD00BF040B0020FC0B0020080C002003
:1056700091B170B54D1E094E50FA85F5441E01E0FA
:10568000AC4207D014F8011F304623F0D9FB0028A4
:10569000F6D170BD012070BD012070475891020005
:1056A0000021F8B504460846FAF71CFE154B164EC5
:1056B0001C70FCF705F80120FCF77CF8134B14482C
:1056C00000241C700125FFF75DFE214607223046AD
:1056D00023F010FB7570FAF75FFF0646FAF762FFDA
:1056E0000746FAF765FF394602464AF6BB233046BD
:1056F00005F088FF2946074B0748022201F06CFAA3
:105700002046F8BDC0600020F00B00207C0B00207C
:105710008C91020098910200856300000B78203B79
:105720006E2B55D8DFE803F03A5454545454545473
:105730005454545454545454545454545454545429
:105740005454545454545454545454545454545419
:105750005454545454545454545454545454545409
:10576000543C545454543E5454544042545454544D
:105770005454545444545454545446485454545413
:1057800054544A54545454544C545454544E5052F7
:105790005454545454543800FCF7BABCFDF7A8BD17
:1057A000FCF716BCFFF792BDFDF70CBFFFF7D2BBAD
:1057B000FFF7A8BAFFF714B8FFF7E0B8FEF7EAB8AA
:1057C000FDF7F2BDFCF720BB05F012BEFEF74ABEA6
:1057D000002070470120704718B100230B704B70F8
:1057E000704710B50C46FAF7D7FE2070FAF7DAFECC
:1057F000607010BD10B5FAF791FEFAF767FE044627
:10580000FAF7B6FE40F6B7339C421FD8B4F5166FD0
:105810001AD3642303FB04F30D4A0E48A3F56A333D
:10582000A3F5C073A2FB0323C3F38713A0FB0320DC
:10583000C00800EB800040001B1ADBB2042BC0B292
:1058400001D90A30C0B210BDFF2010BD642010BDC8
:10585000B5814E1BCDCCCCCC38B500200E4DFFF71A
:10586000C9FF2B7898420AD00A339842044606D0E2
:105870000A4B0B4822460021FDF7C2FD08B100206B
:1058800038BD084B084918682C702A46012304F0DB
:1058900047FD012038BD00BFC46000200D55000049
:1058A00048000020F80B002002100500034B187977
:1058B00080F0020040F34000C0B27047F00B0020BF
:1058C000034B187980F0020040F34000C0B27047EB
:1058D000F00B0020002070472DE9F043BDB0449F3D
:1058E0000FB100243C701F250D41EC0707D51D4664
:1058F00090460C46064633B909B9142E0DD901203D
:105900003DB0BDE8F083043B062BF8D8294610468D
:10591000FFF7AEFE0028F0D1F1E7DFF894902349BD
:10592000D9F800006A46F02304F046FDA6B934BB5E
:105930000DF101050DF1F10605F8014C28460A228A
:10594000002123F0D7F90C3505F8024CB542F3D10C
:10595000AFB101233B7012E0701E00EB40008300EA
:105960003CAAD718013307F8F04C0DEB030674B9C5
:1059700030460A22214623F0BDF907F8E54C6A4675
:10598000D9F800000949F02304F0CAFCB7E7414602
:105990002A46304623F0A3F93046C5F10A02002119
:1059A00023F0A8F907F8E55CE9E700BF0610050059
:1059B000F80B0020F0B5441EE0B21328BDB00F462E
:1059C00015461E460AD90422FE232A700846337063
:1059D000002123F08FF901203DB0F0BD0D4B0E49A1
:1059E00018686A46F02304EB440404F0E5FCA400C4
:1059F0003CAB2344013413F8E52C13F8F03C2A7037
:105A0000337038460DEB04012A7823F068F9012041
:105A10003DB0F0BDF80B00200610050014207047C3
:105A200000B5064B0649186885B00C2301AA04F09E
:105A3000C3FC9DF8040005B05DF804FBF80B0020E2
:105A40000710050070B50A4D0A4C84B00646294679
:105A500001AA20680C2304F0AFFC01AA29462068A3
:105A60008DF804600C2304F05BFC012004B070BDD1
:105A700007100500F80B002030B50A4B85B004462E
:105A80000D4601AA186808490C2304F095FC9DF8FE
:105A90000F202A7020460DF1050123F020F905B0F2
:105AA00030BD00BFF80B00200710050070B5184D81
:105AB00084B00C4606461749286801AA0C2304F056
:105AC0007BFC5CB1231F062B02D9002004B070BD03
:105AD00021463046FFF7CCFD0028F6D0314622465D
